{
  "contractName": "swap",
  "abi": [
    {
      "inputs": [
        {
          "internalType": "address",
          "name": "_tokenAddress",
          "type": "address"
        }
      ],
      "stateMutability": "payable",
      "type": "constructor",
      "payable": true
    },
    {
      "anonymous": false,
      "inputs": [
        {
          "indexed": true,
          "internalType": "address",
          "name": "previousOwner",
          "type": "address"
        },
        {
          "indexed": true,
          "internalType": "address",
          "name": "newOwner",
          "type": "address"
        }
      ],
      "name": "OwnershipTransferred",
      "type": "event"
    },
    {
      "inputs": [
        {
          "internalType": "uint256",
          "name": "",
          "type": "uint256"
        }
      ],
      "name": "batteryMap",
      "outputs": [
        {
          "internalType": "uint256",
          "name": "id",
          "type": "uint256"
        },
        {
          "internalType": "uint256",
          "name": "percent",
          "type": "uint256"
        },
        {
          "internalType": "enum swap.batLocation",
          "name": "location",
          "type": "uint8"
        }
      ],
      "stateMutability": "view",
      "type": "function",
      "constant": true
    },
    {
      "inputs": [],
      "name": "nextBatteryId",
      "outputs": [
        {
          "internalType": "uint256",
          "name": "",
          "type": "uint256"
        }
      ],
      "stateMutability": "view",
      "type": "function",
      "constant": true
    },
    {
      "inputs": [],
      "name": "owner",
      "outputs": [
        {
          "internalType": "address",
          "name": "",
          "type": "address"
        }
      ],
      "stateMutability": "view",
      "type": "function",
      "constant": true
    },
    {
      "inputs": [],
      "name": "renounceOwnership",
      "outputs": [],
      "stateMutability": "nonpayable",
      "type": "function"
    },
    {
      "inputs": [],
      "name": "swapOwner",
      "outputs": [
        {
          "internalType": "address payable",
          "name": "",
          "type": "address"
        }
      ],
      "stateMutability": "view",
      "type": "function",
      "constant": true
    },
    {
      "inputs": [],
      "name": "token",
      "outputs": [
        {
          "internalType": "contract powerToken",
          "name": "",
          "type": "address"
        }
      ],
      "stateMutability": "view",
      "type": "function",
      "constant": true
    },
    {
      "inputs": [],
      "name": "tokenPrice",
      "outputs": [
        {
          "internalType": "uint256",
          "name": "",
          "type": "uint256"
        }
      ],
      "stateMutability": "view",
      "type": "function",
      "constant": true
    },
    {
      "inputs": [
        {
          "internalType": "address",
          "name": "newOwner",
          "type": "address"
        }
      ],
      "name": "transferOwnership",
      "outputs": [],
      "stateMutability": "nonpayable",
      "type": "function"
    },
    {
      "inputs": [
        {
          "internalType": "address",
          "name": "",
          "type": "address"
        }
      ],
      "name": "userBattery",
      "outputs": [
        {
          "internalType": "uint256",
          "name": "id",
          "type": "uint256"
        },
        {
          "internalType": "uint256",
          "name": "percent",
          "type": "uint256"
        },
        {
          "internalType": "enum swap.batLocation",
          "name": "location",
          "type": "uint8"
        }
      ],
      "stateMutability": "view",
      "type": "function",
      "constant": true
    },
    {
      "inputs": [
        {
          "internalType": "address",
          "name": "",
          "type": "address"
        }
      ],
      "name": "userStates",
      "outputs": [
        {
          "internalType": "enum swap.userState",
          "name": "",
          "type": "uint8"
        }
      ],
      "stateMutability": "view",
      "type": "function",
      "constant": true
    },
    {
      "stateMutability": "payable",
      "type": "receive",
      "payable": true
    },
    {
      "inputs": [],
      "name": "buyTokens",
      "outputs": [],
      "stateMutability": "payable",
      "type": "function",
      "payable": true
    },
    {
      "inputs": [
        {
          "internalType": "address",
          "name": "_user",
          "type": "address"
        }
      ],
      "name": "depositTokens",
      "outputs": [],
      "stateMutability": "nonpayable",
      "type": "function"
    },
    {
      "inputs": [
        {
          "internalType": "uint256",
          "name": "_batId",
          "type": "uint256"
        },
        {
          "internalType": "address",
          "name": "_user",
          "type": "address"
        }
      ],
      "name": "depoistBattery",
      "outputs": [],
      "stateMutability": "nonpayable",
      "type": "function"
    },
    {
      "inputs": [
        {
          "internalType": "uint256",
          "name": "_batId",
          "type": "uint256"
        },
        {
          "internalType": "address",
          "name": "_user",
          "type": "address"
        }
      ],
      "name": "collectBattery",
      "outputs": [],
      "stateMutability": "nonpayable",
      "type": "function"
    },
    {
      "inputs": [
        {
          "internalType": "address",
          "name": "_user",
          "type": "address"
        }
      ],
      "name": "getBalance",
      "outputs": [
        {
          "internalType": "uint256",
          "name": "",
          "type": "uint256"
        }
      ],
      "stateMutability": "view",
      "type": "function",
      "constant": true
    },
    {
      "inputs": [],
      "name": "totalSupply",
      "outputs": [
        {
          "internalType": "uint256",
          "name": "",
          "type": "uint256"
        }
      ],
      "stateMutability": "view",
      "type": "function",
      "constant": true
    },
    {
      "inputs": [],
      "name": "withdraw",
      "outputs": [],
      "stateMutability": "nonpayable",
      "type": "function"
    },
    {
      "inputs": [],
      "name": "transferTokenOwnership",
      "outputs": [],
      "stateMutability": "nonpayable",
      "type": "function"
    },
    {
      "inputs": [
        {
          "internalType": "address[]",
          "name": "userAddresses",
          "type": "address[]"
        }
      ],
      "name": "init",
      "outputs": [],
      "stateMutability": "nonpayable",
      "type": "function"
    }
  ],
  "bytecode": "0x608060405260008060146101000a81548160ff021916908315150217905550600180556101906005556000600660006101000a81548160ff02191690831515021790555060405162002b4a38038062002b4a833981810160405281019062000068919062000352565b620000886200007c6200016260201b60201c565b6200016a60201b60201c565b620000986200022e60201b60201c565b33600360006101000a81548173ffffffffffffffffffffffffffffffffffffffff021916908373ffffffffffffffffffffffffffffffffffffffff16021790555030600460006101000a81548173ffffffffffffffffffffffffffffffffffffffff021916908373ffffffffffffffffffffffffffffffffffffffff16021790555080600260006101000a81548173ffffffffffffffffffffffffffffffffffffffff021916908373ffffffffffffffffffffffffffffffffffffffff1602179055505062000407565b600033905090565b60008060009054906101000a900473ffffffffffffffffffffffffffffffffffffffff169050816000806101000a81548173ffffffffffffffffffffffffffffffffffffffff021916908373ffffffffffffffffffffffffffffffffffffffff1602179055508173ffffffffffffffffffffffffffffffffffffffff168173ffffffffffffffffffffffffffffffffffffffff167f8be0079c531659141344cd1fd0a4f28419497f9722a3daafe3b4186f6b6457e060405160405180910390a35050565b6200023e6200016260201b60201c565b73ffffffffffffffffffffffffffffffffffffffff1662000264620002bf60201b60201c565b73ffffffffffffffffffffffffffffffffffffffff1614620002bd576040517f08c379a0000000000000000000000000000000000000000000000000000000008152600401620002b490620003e5565b60405180910390fd5b565b60008060009054906101000a900473ffffffffffffffffffffffffffffffffffffffff16905090565b600080fd5b600073ffffffffffffffffffffffffffffffffffffffff82169050919050565b60006200031a82620002ed565b9050919050565b6200032c816200030d565b81146200033857600080fd5b50565b6000815190506200034c8162000321565b92915050565b6000602082840312156200036b576200036a620002e8565b5b60006200037b848285016200033b565b91505092915050565b600082825260208201905092915050565b7f4f776e61626c653a2063616c6c6572206973206e6f7420746865206f776e6572600082015250565b6000620003cd60208362000384565b9150620003da8262000395565b602082019050919050565b600060208201905081810360008301526200040081620003be565b9050919050565b61273380620004176000396000f3fe6080604052600436106101185760003560e01c80637ff9b596116100a0578063d89239b011610064578063d89239b014610355578063f2fde38b14610380578063f8b2cb4f146103a9578063fc0c546a146103e6578063fd58835b146104115761011f565b80637ff9b5961461028d5780638da5cb5b146102b8578063b674ec97146102e3578063c6044c4614610322578063d0febe4c1461034b5761011f565b80633ccfd60b116100e75780633ccfd60b146101f65780634056675e1461020d57806356bccf91146102245780636bd82bb61461024d578063715018a6146102765761011f565b80630ecc535f1461012457806318160ddd14610161578063251574001461018c5780633c4c9dd7146101cb5761011f565b3661011f57005b600080fd5b34801561013057600080fd5b5061014b600480360381019061014691906118ae565b61043a565b6040516101589190611952565b60405180910390f35b34801561016d57600080fd5b5061017661045a565b6040516101839190611986565b60405180910390f35b34801561019857600080fd5b506101b360048036038101906101ae91906119cd565b6104f2565b6040516101c293929190611a42565b60405180910390f35b3480156101d757600080fd5b506101e0610529565b6040516101ed9190611a9a565b60405180910390f35b34801561020257600080fd5b5061020b61054f565b005b34801561021957600080fd5b506102226106d7565b005b34801561023057600080fd5b5061024b600480360381019061024691906118ae565b610790565b005b34801561025957600080fd5b50610274600480360381019061026f9190611ab5565b610a64565b005b34801561028257600080fd5b5061028b610ca3565b005b34801561029957600080fd5b506102a2610cb7565b6040516102af9190611986565b60405180910390f35b3480156102c457600080fd5b506102cd610cbd565b6040516102da9190611b04565b60405180910390f35b3480156102ef57600080fd5b5061030a600480360381019061030591906118ae565b610ce6565b60405161031993929190611a42565b60405180910390f35b34801561032e57600080fd5b5061034960048036038101906103449190611b84565b610d1d565b005b610353610fee565b005b34801561036157600080fd5b5061036a61123c565b6040516103779190611986565b60405180910390f35b34801561038c57600080fd5b506103a760048036038101906103a291906118ae565b611242565b005b3480156103b557600080fd5b506103d060048036038101906103cb91906118ae565b6112c5565b6040516103dd9190611986565b60405180910390f35b3480156103f257600080fd5b506103fb61136a565b6040516104089190611c30565b60405180910390f35b34801561041d57600080fd5b5061043860048036038101906104339190611ab5565b611390565b005b60076020528060005260406000206000915054906101000a900460ff1681565b6000600260009054906101000a900473ffffffffffffffffffffffffffffffffffffffff1673ffffffffffffffffffffffffffffffffffffffff166318160ddd6040518163ffffffff1660e01b8152600401602060405180830381865afa1580156104c9573d6000803e3d6000fd5b505050506040513d601f19601f820116820180604052508101906104ed9190611c60565b905090565b60086020528060005260406000206000915090508060000154908060010154908060020160009054906101000a900460ff16905083565b600360009054906101000a900473ffffffffffffffffffffffffffffffffffffffff1681565b600360009054906101000a900473ffffffffffffffffffffffffffffffffffffffff1673ffffffffffffffffffffffffffffffffffffffff163373ffffffffffffffffffffffffffffffffffffffff16146105df576040517f08c379a00000000000000000000000000000000000000000000000000000000081526004016105d690611d10565b60405180910390fd5b600047905060008111610627576040517f08c379a000000000000000000000000000000000000000000000000000000000815260040161061e90611d7c565b60405180910390fd5b60003373ffffffffffffffffffffffffffffffffffffffff168260405161064d90611dcd565b60006040518083038185875af1925050503d806000811461068a576040519150601f19603f3d011682016040523d82523d6000602084013e61068f565b606091505b50509050806106d3576040517f08c379a00000000000000000000000000000000000000000000000000000000081526004016106ca90611e2e565b60405180910390fd5b5050565b6106df6116fc565b600260009054906101000a900473ffffffffffffffffffffffffffffffffffffffff1673ffffffffffffffffffffffffffffffffffffffff1663f2fde38b600460009054906101000a900473ffffffffffffffffffffffffffffffffffffffff166040518263ffffffff1660e01b815260040161075c9190611e6f565b600060405180830381600087803b15801561077657600080fd5b505af115801561078a573d6000803e3d6000fd5b50505050565b600660009054906101000a900460ff16156107e0576040517f08c379a00000000000000000000000000000000000000000000000000000000081526004016107d790611ed6565b60405180910390fd5b6001600660006101000a81548160ff0219169083151502179055506064600260009054906101000a900473ffffffffffffffffffffffffffffffffffffffff1673ffffffffffffffffffffffffffffffffffffffff166370a08231836040518263ffffffff1660e01b81526004016108589190611b04565b602060405180830381865afa158015610875573d6000803e3d6000fd5b505050506040513d601f19601f820116820180604052508101906108999190611c60565b10156108da576040517f08c379a00000000000000000000000000000000000000000000000000000000081526004016108d190611f42565b60405180910390fd5b600260009054906101000a900473ffffffffffffffffffffffffffffffffffffffff1673ffffffffffffffffffffffffffffffffffffffff166323b872dd82600460009054906101000a900473ffffffffffffffffffffffffffffffffffffffff1660646040518463ffffffff1660e01b815260040161095c93929190611f9d565b6020604051808303816000875af115801561097b573d6000803e3d6000fd5b505050506040513d601f19601f8201168201806040525081019061099f919061200c565b6109de576040517f08c379a00000000000000000000000000000000000000000000000000000000081526004016109d590612085565b60405180910390fd5b6000600760008373ffffffffffffffffffffffffffffffffffffffff1673ffffffffffffffffffffffffffffffffffffffff16815260200190815260200160002060006101000a81548160ff02191690836002811115610a4157610a406118db565b5b02179055506000600660006101000a81548160ff02191690831515021790555050565b600660009054906101000a900460ff1615610ab4576040517f08c379a0000000000000000000000000000000000000000000000000000000008152600401610aab90611ed6565b60405180910390fd5b6001600660006101000a81548160ff02191690831515021790555081600960008373ffffffffffffffffffffffffffffffffffffffff1673ffffffffffffffffffffffffffffffffffffffff1681526020019081526020016000206000015414610b53576040517f08c379a0000000000000000000000000000000000000000000000000000000008152600401610b4a90612117565b60405180910390fd5b60006001811115610b6757610b666118db565b5b6008600084815260200190815260200160002060020160009054906101000a900460ff166001811115610b9d57610b9c6118db565b5b14610bdd576040517f08c379a0000000000000000000000000000000000000000000000000000000008152600401610bd490612183565b60405180910390fd5b60016008600084815260200190815260200160002060020160006101000a81548160ff02191690836001811115610c1757610c166118db565b5b02179055506001600760008373ffffffffffffffffffffffffffffffffffffffff1673ffffffffffffffffffffffffffffffffffffffff16815260200190815260200160002060006101000a81548160ff02191690836002811115610c7f57610c7e6118db565b5b02179055506000600660006101000a81548160ff0219169083151502179055505050565b610cab6116fc565b610cb5600061177a565b565b60055481565b60008060009054906101000a900473ffffffffffffffffffffffffffffffffffffffff16905090565b60096020528060005260406000206000915090508060000154908060010154908060020160009054906101000a900460ff16905083565b610d256116fc565b600060149054906101000a900460ff1615610d75576040517f08c379a0000000000000000000000000000000000000000000000000000000008152600401610d6c906121ef565b60405180910390fd5b6001600060146101000a81548160ff02191690831515021790555060005b600c811015610e53576040518060600160405280600154815260200160648152602001600180811115610dc957610dc86118db565b5b815250600860006001548152602001908152602001600020600082015181600001556020820151816001015560408201518160020160006101000a81548160ff02191690836001811115610e2057610e1f6118db565b5b021790555090505060016000815480929190610e3b9061223e565b91905055508080610e4b9061223e565b915050610d93565b5060005b82829050811015610fe957604051806060016040528060015481526020016014815260200160006001811115610e9057610e8f6118db565b5b815250600860006001548152602001908152602001600020600082015181600001556020820151816001015560408201518160020160006101000a81548160ff02191690836001811115610ee757610ee66118db565b5b021790555090505060086000600154815260200190815260200160002060096000858585818110610f1b57610f1a612286565b5b9050602002016020810190610f3091906118ae565b73ffffffffffffffffffffffffffffffffffffffff1673ffffffffffffffffffffffffffffffffffffffff16815260200190815260200160002060008201548160000155600182015481600101556002820160009054906101000a900460ff168160020160006101000a81548160ff02191690836001811115610fb657610fb56118db565b5b021790555090505060016000815480929190610fd19061223e565b91905055508080610fe19061223e565b915050610e57565b505050565b600660009054906101000a900460ff161561103e576040517f08c379a000000000000000000000000000000000000000000000000000000000815260040161103590611ed6565b60405180910390fd5b6001600660006101000a81548160ff021916908315150217905550606460055461106891906122b5565b34116110a9576040517f08c379a00000000000000000000000000000000000000000000000000000000081526004016110a09061238f565b60405180910390fd5b3373ffffffffffffffffffffffffffffffffffffffff16313410611102576040517f08c379a00000000000000000000000000000000000000000000000000000000081526004016110f990612421565b60405180910390fd5b60003490506000600554826111179190612470565b905060006005548261112991906122b5565b90506000818461113991906124a1565b9050600260009054906101000a900473ffffffffffffffffffffffffffffffffffffffff1673ffffffffffffffffffffffffffffffffffffffff166340c10f1933856040518363ffffffff1660e01b81526004016111989291906124d5565b600060405180830381600087803b1580156111b257600080fd5b505af11580156111c6573d6000803e3d6000fd5b50505050600081111561121b573373ffffffffffffffffffffffffffffffffffffffff166108fc829081150290604051600060405180830381858888f19350505050158015611219573d6000803e3d6000fd5b505b505050506000600660006101000a81548160ff021916908315150217905550565b60015481565b61124a6116fc565b600073ffffffffffffffffffffffffffffffffffffffff168173ffffffffffffffffffffffffffffffffffffffff16036112b9576040517f08c379a00000000000000000000000000000000000000000000000000000000081526004016112b090612570565b60405180910390fd5b6112c28161177a565b50565b6000600260009054906101000a900473ffffffffffffffffffffffffffffffffffffffff1673ffffffffffffffffffffffffffffffffffffffff166370a08231836040518263ffffffff1660e01b81526004016113229190611b04565b602060405180830381865afa15801561133f573d6000803e3d6000fd5b505050506040513d601f19601f820116820180604052508101906113639190611c60565b9050919050565b600260009054906101000a900473ffffffffffffffffffffffffffffffffffffffff1681565b600660009054906101000a900460ff16156113e0576040517f08c379a00000000000000000000000000000000000000000000000000000000081526004016113d790611ed6565b60405180910390fd5b6001600660006101000a81548160ff02191690831515021790555060018081111561140e5761140d6118db565b5b6008600084815260200190815260200160002060020160009054906101000a900460ff166001811115611444576114436118db565b5b14611484576040517f08c379a000000000000000000000000000000000000000000000000000000000815260040161147b906125dc565b60405180910390fd5b6050600860008481526020019081526020016000206001015410156114de576040517f08c379a00000000000000000000000000000000000000000000000000000000081526004016114d590612648565b60405180910390fd5b60006008600084815260200190815260200160002060020160006101000a81548160ff02191690836001811115611518576115176118db565b5b021790555060086000838152602001908152602001600020600960008373ffffffffffffffffffffffffffffffffffffffff1673ffffffffffffffffffffffffffffffffffffffff16815260200190815260200160002060008201548160000155600182015481600101556002820160009054906101000a900460ff168160020160006101000a81548160ff021916908360018111156115bb576115ba6118db565b5b02179055509050506002600760008373ffffffffffffffffffffffffffffffffffffffff1673ffffffffffffffffffffffffffffffffffffffff16815260200190815260200160002060006101000a81548160ff02191690836002811115611626576116256118db565b5b0217905550600260009054906101000a900473ffffffffffffffffffffffffffffffffffffffff1673ffffffffffffffffffffffffffffffffffffffff16639dc29fac600460009054906101000a900473ffffffffffffffffffffffffffffffffffffffff1660646040518363ffffffff1660e01b81526004016116ab929190612668565b600060405180830381600087803b1580156116c557600080fd5b505af11580156116d9573d6000803e3d6000fd5b505050506000600660006101000a81548160ff0219169083151502179055505050565b61170461183e565b73ffffffffffffffffffffffffffffffffffffffff16611722610cbd565b73ffffffffffffffffffffffffffffffffffffffff1614611778576040517f08c379a000000000000000000000000000000000000000000000000000000000815260040161176f906126dd565b60405180910390fd5b565b60008060009054906101000a900473ffffffffffffffffffffffffffffffffffffffff169050816000806101000a81548173ffffffffffffffffffffffffffffffffffffffff021916908373ffffffffffffffffffffffffffffffffffffffff1602179055508173ffffffffffffffffffffffffffffffffffffffff168173ffffffffffffffffffffffffffffffffffffffff167f8be0079c531659141344cd1fd0a4f28419497f9722a3daafe3b4186f6b6457e060405160405180910390a35050565b600033905090565b600080fd5b600080fd5b600073ffffffffffffffffffffffffffffffffffffffff82169050919050565b600061187b82611850565b9050919050565b61188b81611870565b811461189657600080fd5b50565b6000813590506118a881611882565b92915050565b6000602082840312156118c4576118c3611846565b5b60006118d284828501611899565b91505092915050565b7f4e487b7100000000000000000000000000000000000000000000000000000000600052602160045260246000fd5b6003811061191b5761191a6118db565b5b50565b600081905061192c8261190a565b919050565b600061193c8261191e565b9050919050565b61194c81611931565b82525050565b60006020820190506119676000830184611943565b92915050565b6000819050919050565b6119808161196d565b82525050565b600060208201905061199b6000830184611977565b92915050565b6119aa8161196d565b81146119b557600080fd5b50565b6000813590506119c7816119a1565b92915050565b6000602082840312156119e3576119e2611846565b5b60006119f1848285016119b8565b91505092915050565b60028110611a0b57611a0a6118db565b5b50565b6000819050611a1c826119fa565b919050565b6000611a2c82611a0e565b9050919050565b611a3c81611a21565b82525050565b6000606082019050611a576000830186611977565b611a646020830185611977565b611a716040830184611a33565b949350505050565b6000611a8482611850565b9050919050565b611a9481611a79565b82525050565b6000602082019050611aaf6000830184611a8b565b92915050565b60008060408385031215611acc57611acb611846565b5b6000611ada858286016119b8565b9250506020611aeb85828601611899565b9150509250929050565b611afe81611870565b82525050565b6000602082019050611b196000830184611af5565b92915050565b600080fd5b600080fd5b600080fd5b60008083601f840112611b4457611b43611b1f565b5b8235905067ffffffffffffffff811115611b6157611b60611b24565b5b602083019150836020820283011115611b7d57611b7c611b29565b5b9250929050565b60008060208385031215611b9b57611b9a611846565b5b600083013567ffffffffffffffff811115611bb957611bb861184b565b5b611bc585828601611b2e565b92509250509250929050565b6000819050919050565b6000611bf6611bf1611bec84611850565b611bd1565b611850565b9050919050565b6000611c0882611bdb565b9050919050565b6000611c1a82611bfd565b9050919050565b611c2a81611c0f565b82525050565b6000602082019050611c456000830184611c21565b92915050565b600081519050611c5a816119a1565b92915050565b600060208284031215611c7657611c75611846565b5b6000611c8484828501611c4b565b91505092915050565b600082825260208201905092915050565b7f4f6e6c7920746865206f776e65722063616e2063616c6c20746869732066756e60008201527f6374696f6e000000000000000000000000000000000000000000000000000000602082015250565b6000611cfa602583611c8d565b9150611d0582611c9e565b604082019050919050565b60006020820190508181036000830152611d2981611ced565b9050919050565b7f4e6f204574686572206c65667420746f20776974686472617700000000000000600082015250565b6000611d66601983611c8d565b9150611d7182611d30565b602082019050919050565b60006020820190508181036000830152611d9581611d59565b9050919050565b600081905092915050565b50565b6000611db7600083611d9c565b9150611dc282611da7565b600082019050919050565b6000611dd882611daa565b9150819050919050565b7f4661696c656420746f2073656e64204574686572000000000000000000000000600082015250565b6000611e18601483611c8d565b9150611e2382611de2565b602082019050919050565b60006020820190508181036000830152611e4781611e0b565b9050919050565b6000611e5982611bfd565b9050919050565b611e6981611e4e565b82525050565b6000602082019050611e846000830184611e60565b92915050565b7f5265656e7472616e637920677561726400000000000000000000000000000000600082015250565b6000611ec0601083611c8d565b9150611ecb82611e8a565b602082019050919050565b60006020820190508181036000830152611eef81611eb3565b9050919050565b7f496e73756666696369656e7420746f6b656e2062616c616e6365000000000000600082015250565b6000611f2c601a83611c8d565b9150611f3782611ef6565b602082019050919050565b60006020820190508181036000830152611f5b81611f1f565b9050919050565b6000819050919050565b6000611f87611f82611f7d84611f62565b611bd1565b61196d565b9050919050565b611f9781611f6c565b82525050565b6000606082019050611fb26000830186611af5565b611fbf6020830185611e60565b611fcc6040830184611f8e565b949350505050565b60008115159050919050565b611fe981611fd4565b8114611ff457600080fd5b50565b60008151905061200681611fe0565b92915050565b60006020828403121561202257612021611846565b5b600061203084828501611ff7565b91505092915050565b7f546f6b656e207472616e73666572206661696c65640000000000000000000000600082015250565b600061206f601583611c8d565b915061207a82612039565b602082019050919050565b6000602082019050818103600083015261209e81612062565b9050919050565b7f42617474657279206973206e6f7420696e2075736572277320706f737365737360008201527f696f6e0000000000000000000000000000000000000000000000000000000000602082015250565b6000612101602383611c8d565b915061210c826120a5565b604082019050919050565b60006020820190508181036000830152612130816120f4565b9050919050565b7f42617474657279206973206e6f7420696e20612076656869636c650000000000600082015250565b600061216d601b83611c8d565b915061217882612137565b602082019050919050565b6000602082019050818103600083015261219c81612160565b9050919050565b7f416c726561647920696e697469616c697a656400000000000000000000000000600082015250565b60006121d9601383611c8d565b91506121e4826121a3565b602082019050919050565b60006020820190508181036000830152612208816121cc565b9050919050565b7f4e487b7100000000000000000000000000000000000000000000000000000000600052601160045260246000fd5b60006122498261196d565b91507fffffffffffffffffffffffffffffffffffffffffffffffffffffffffffffffff820361227b5761227a61220f565b5b600182019050919050565b7f4e487b7100000000000000000000000000000000000000000000000000000000600052603260045260246000fd5b60006122c08261196d565b91506122cb8361196d565b92508282026122d98161196d565b915082820484148315176122f0576122ef61220f565b5b5092915050565b7f41206d696e696d756d206f66203430303030207765692069732072657175697260008201527f656420746f206275792061206d696e696d756d206f662031303020746f6b656e60208201527f7300000000000000000000000000000000000000000000000000000000000000604082015250565b6000612379604183611c8d565b9150612384826122f7565b606082019050919050565b600060208201905081810360008301526123a88161236c565b9050919050565b7f496e73756666696369656e74204554482062616c616e636520746f206275792060008201527f746f6b656e730000000000000000000000000000000000000000000000000000602082015250565b600061240b602683611c8d565b9150612416826123af565b604082019050919050565b6000602082019050818103600083015261243a816123fe565b9050919050565b7f4e487b7100000000000000000000000000000000000000000000000000000000600052601260045260246000fd5b600061247b8261196d565b91506124868361196d565b92508261249657612495612441565b5b828204905092915050565b60006124ac8261196d565b91506124b78361196d565b92508282039050818111156124cf576124ce61220f565b5b92915050565b60006040820190506124ea6000830185611af5565b6124f76020830184611977565b9392505050565b7f4f776e61626c653a206e6577206f776e657220697320746865207a65726f206160008201527f6464726573730000000000000000000000000000000000000000000000000000602082015250565b600061255a602683611c8d565b9150612565826124fe565b604082019050919050565b600060208201905081810360008301526125898161254d565b9050919050565b7f42617474657279206973206e6f74206174207468652073746174696f6e000000600082015250565b60006125c6601d83611c8d565b91506125d182612590565b602082019050919050565b600060208201905081810360008301526125f5816125b9565b9050919050565b7f42617474657279206973206e6f74206368617267656420656e6f756768000000600082015250565b6000612632601d83611c8d565b915061263d826125fc565b602082019050919050565b6000602082019050818103600083015261266181612625565b9050919050565b600060408201905061267d6000830185611e60565b61268a6020830184611f8e565b9392505050565b7f4f776e61626c653a2063616c6c6572206973206e6f7420746865206f776e6572600082015250565b60006126c7602083611c8d565b91506126d282612691565b602082019050919050565b600060208201905081810360008301526126f6816126ba565b905091905056fea26469706673582212201612396faae025d861e324da5d63f74b44927bfba306b6bfaa90baa4be56c7cd64736f6c63430008130033",
  "immutableReferences": {},
  "source": "// SPDX-License-Identifier: MIT\npragma solidity 0.8.19;\n\nimport \"./powerToken.sol\";\nimport \"@openzeppelin/contracts/access/Ownable.sol\";\n/*Function Paramter Variables: _variableName\n*Everything else in camelCase: variableName,  functionName, contractName\n*Two blank lines before contracts\n*One blank line before functions\n*/\n\n//Use web3.js functions to interact with the contract: getAccount, getBalane, currentProvider, getBlock, getTransaction\n\n\n/*Order Layout for sol file:\n*SPDX-License-Identifier\n*pragma solidity\n*import statements\n*interfaces\n*libraries\n*contracts\n*/\n\n//Battery structure to maaintain the state of the battery: id, percent, lastUser, location (vehicle, batterystation)\n\ncontract swap is Ownable {\n  /*Order Layout for contract:\n  *Type declarations\n  *State variables\n  *Events\n  *Errors\n  *Modifiers\n  *Methods\n  */\n\n  bool private initialized = false; //Only used for init\n  uint256 public nextBatteryId = 1; //Only used for init\n  powerToken public token;\n  address payable public swapOwner;\n  address payable contractAddress;\n  uint256 public tokenPrice = 400; //400 wei per token\n  bool internal reentrancyLock = false; //Reentrancy guard\n\n  //Enum for battery location\n  enum batLocation {\n    VEHICLE,\n    STATION\n  }\n\n  //Enum for user state\n  enum userState {\n    SPENT,\n    DEPOSITED,\n    COLLECTED\n  }\n\n  mapping(address => userState) public userStates; //Mapping to track user state during the swap process\n\n  //Battery structure to maintain the state of the battery\n  struct battery {\n    uint256 id;\n    uint256 percent;\n    //address lastUser;\n    batLocation location;\n  }\n\n  mapping (uint256 => battery) public batteryMap; //Mapping ID to Battery\n\n  mapping (address => battery) public userBattery; //Mapping user to battery\n\n  //Constructor to deploy the contract with the token's address\n  //Transfer ownership of the token to this contract\n  constructor(address _tokenAddress) payable onlyOwner(){\n    swapOwner = payable(msg.sender); //Set the owner of the contract to the EOA that deployed the contract\n    contractAddress = payable(address(this));\n    token = powerToken(_tokenAddress); //Deploy the contract with the token's address\n  }\n\n  //Modifier ownerOnly to restrict access to the owner\n  modifier ownerOnly() {\n    require(msg.sender == swapOwner, \"Only the owner can call this function\");\n    _;\n  }\n\n  //Modifier for reentrancy guard\n  modifier reentrancyGuard() {\n    require(!reentrancyLock, \"Reentrancy guard\");\n    reentrancyLock = true;\n    _;\n    reentrancyLock = false;\n  }\n\n  //Receive function to accept ether\n  receive() external payable {\n    //Emit an event to log the amount of ether received\n  }\n\n  //Function to buy tokens\n  function buyTokens() public payable reentrancyGuard() {\n    //Ensure user can buy at least one token\n    require(msg.value > tokenPrice * 100, \"A minimum of 40000 wei is required to buy a minimum of 100 tokens\");\n    //Ensure user has enough balance to buy tokens\n    require(msg.value < msg.sender.balance, \"Insufficient ETH balance to buy tokens\");\n    uint256 amount = msg.value;\n    uint256 tokens = amount / tokenPrice; //Calculate the number of tokens to transfer \n    uint256 cost = tokens * tokenPrice; //Calculate the cost of the tokens\n    uint256 refund = amount - cost; //Calculate the refund amount\n    token.mint(msg.sender, tokens); //Transfer tokens to user\n\n    //Refund the user if they overpaid\n    if (refund > 0) {\n      payable(msg.sender).transfer(refund);\n    }\n  }\n\n  // Users deposit tokens to initiate the swap process\n  function depositTokens(address _user) public reentrancyGuard(){\n    require(token.balanceOf(_user) >= 100, \"Insufficient token balance\");\n    require(token.transferFrom(_user, contractAddress, 100), \"Token transfer failed\");\n    userStates[_user] = userState.SPENT; //Update user state\n  }\n\n  //Function to deposit the battery\n  function depoistBattery(uint256 _batId, address _user) public reentrancyGuard(){\n    //Ensure battery ID belongs to the user\n    require(userBattery[_user].id == _batId, \"Battery is not in user's possession\");\n    //Ensure battery is in the vehicle\n    require(batteryMap[_batId].location == batLocation.VEHICLE, \"Battery is not in a vehicle\");\n    //Modify the battery location to the battery station\n    batteryMap[_batId].location = batLocation.STATION;\n    //Update the user state\n    userStates[_user] = userState.DEPOSITED;\n  }\n\n  // Once verified, the user can collect a charged battery\n  function collectBattery(uint256 _batId, address _user) public reentrancyGuard(){\n    //Ensure battery ID belongs to the station\n    require(batteryMap[_batId].location == batLocation.STATION, \"Battery is not at the station\");\n    //Ensure battery is charged\n    require(batteryMap[_batId].percent >=80, \"Battery is not charged enough\");\n    //Modify the battery location to the vehicle\n    batteryMap[_batId].location = batLocation.VEHICLE;\n    //Modify the last user to the calling user\n    userBattery[_user] = batteryMap[_batId];\n    //Update the user state\n    userStates[_user] = userState.COLLECTED;\n    //Burn tokens from contract\n    token.burn(contractAddress, 100);\n  }\n  \n\n  //Get Balance of the calling user\n  function getBalance(address _user) public view returns (uint256) {\n    return token.balanceOf(_user);\n  }\n\n  //Returns total Supply\n  function totalSupply() public view returns (uint256) {\n    return token.totalSupply();\n  }\n\n  //Function to let contract owner to withdraw ether\n  function withdraw() public ownerOnly {\n    uint amount = address(this).balance;\n    require(amount > 0, \"No Ether left to withdraw\");\n\n    (bool success, ) = msg.sender.call{value: amount}(\"\");\n    require(success, \"Failed to send Ether\");\n  }\n\n  //Function to pass ownership of the token to the contract\n  //Add this in test\n  function transferTokenOwnership() public onlyOwner {\n    token.transferOwnership(contractAddress);\n  }\n\n  // Function to initialize the contract\n    function init(address[] calldata userAddresses) external onlyOwner {\n        require(!initialized, \"Already initialized\");\n        initialized = true;\n\n        // Create 12 batteries belonging to the station\n        for (uint i = 0; i < 12; i++) {\n            batteryMap[nextBatteryId] = battery(nextBatteryId, 100, batLocation.STATION); // Fully charged\n            nextBatteryId++;\n        }\n\n        // Create three batteries belonging to users\n        for (uint i = 0; i < userAddresses.length; i++) {\n            batteryMap[nextBatteryId] = battery(nextBatteryId, 20, batLocation.VEHICLE); // Assuming 20% charge\n            userBattery[userAddresses[i]] = batteryMap[nextBatteryId];\n            nextBatteryId++;\n        }\n\n        // Any additional setup can be added here\n    }\n}\n",
  "sourcePath": "/Users/Manan/MDX/Blockchain2/battery-swap/contracts/swap.sol",
  "compiler": {
    "name": "solc",
    "version": "0.8.19+commit.7dd6d404.Emscripten.clang"
  },
  "schemaVersion": "3.4.16",
  "updatedAt": "2024-04-12T22:41:49.309Z",
  "networkType": "ethereum",
  "devdoc": {
    "kind": "dev",
    "methods": {
      "owner()": {
        "details": "Returns the address of the current owner."
      },
      "renounceOwnership()": {
        "details": "Leaves the contract without owner. It will not be possible to call `onlyOwner` functions. Can only be called by the current owner. NOTE: Renouncing ownership will leave the contract without an owner, thereby disabling any functionality that is only available to the owner."
      },
      "transferOwnership(address)": {
        "details": "Transfers ownership of the contract to a new account (`newOwner`). Can only be called by the current owner."
      }
    },
    "version": 1
  },
  "userdoc": {
    "kind": "user",
    "methods": {},
    "version": 1
  }
}