{
  "contractName": "swap",
  "abi": [
    {
      "inputs": [
        {
          "internalType": "address",
          "name": "_tokenAddress",
          "type": "address"
        }
      ],
      "stateMutability": "payable",
      "type": "constructor",
      "payable": true
    },
    {
      "anonymous": false,
      "inputs": [
        {
          "indexed": true,
          "internalType": "address",
          "name": "from",
          "type": "address"
        },
        {
          "indexed": false,
          "internalType": "uint256",
          "name": "batId",
          "type": "uint256"
        }
      ],
      "name": "BatteryCollect",
      "type": "event"
    },
    {
      "anonymous": false,
      "inputs": [
        {
          "indexed": true,
          "internalType": "address",
          "name": "from",
          "type": "address"
        },
        {
          "indexed": false,
          "internalType": "uint256",
          "name": "batId",
          "type": "uint256"
        }
      ],
      "name": "BatteryDeposit",
      "type": "event"
    },
    {
      "anonymous": false,
      "inputs": [
        {
          "indexed": true,
          "internalType": "address",
          "name": "from",
          "type": "address"
        },
        {
          "indexed": false,
          "internalType": "uint256",
          "name": "value",
          "type": "uint256"
        }
      ],
      "name": "Deposit",
      "type": "event"
    },
    {
      "anonymous": false,
      "inputs": [
        {
          "indexed": true,
          "internalType": "address",
          "name": "to",
          "type": "address"
        },
        {
          "indexed": false,
          "internalType": "uint256",
          "name": "value",
          "type": "uint256"
        }
      ],
      "name": "Mint",
      "type": "event"
    },
    {
      "anonymous": false,
      "inputs": [
        {
          "indexed": true,
          "internalType": "address",
          "name": "previousOwner",
          "type": "address"
        },
        {
          "indexed": true,
          "internalType": "address",
          "name": "newOwner",
          "type": "address"
        }
      ],
      "name": "OwnershipTransferred",
      "type": "event"
    },
    {
      "anonymous": false,
      "inputs": [
        {
          "indexed": false,
          "internalType": "address",
          "name": "",
          "type": "address"
        },
        {
          "indexed": false,
          "internalType": "uint256",
          "name": "",
          "type": "uint256"
        }
      ],
      "name": "Received",
      "type": "event"
    },
    {
      "anonymous": false,
      "inputs": [
        {
          "indexed": true,
          "internalType": "address",
          "name": "owner",
          "type": "address"
        },
        {
          "indexed": false,
          "internalType": "uint256",
          "name": "value",
          "type": "uint256"
        }
      ],
      "name": "Withdraw",
      "type": "event"
    },
    {
      "inputs": [
        {
          "internalType": "uint256",
          "name": "",
          "type": "uint256"
        }
      ],
      "name": "batteryMap",
      "outputs": [
        {
          "internalType": "uint256",
          "name": "id",
          "type": "uint256"
        },
        {
          "internalType": "uint256",
          "name": "percent",
          "type": "uint256"
        },
        {
          "internalType": "enum swap.batLocation",
          "name": "location",
          "type": "uint8"
        }
      ],
      "stateMutability": "view",
      "type": "function",
      "constant": true
    },
    {
      "inputs": [],
      "name": "nextBatteryId",
      "outputs": [
        {
          "internalType": "uint256",
          "name": "",
          "type": "uint256"
        }
      ],
      "stateMutability": "view",
      "type": "function",
      "constant": true
    },
    {
      "inputs": [],
      "name": "owner",
      "outputs": [
        {
          "internalType": "address",
          "name": "",
          "type": "address"
        }
      ],
      "stateMutability": "view",
      "type": "function",
      "constant": true
    },
    {
      "inputs": [],
      "name": "renounceOwnership",
      "outputs": [],
      "stateMutability": "nonpayable",
      "type": "function"
    },
    {
      "inputs": [],
      "name": "swapOwner",
      "outputs": [
        {
          "internalType": "address payable",
          "name": "",
          "type": "address"
        }
      ],
      "stateMutability": "view",
      "type": "function",
      "constant": true
    },
    {
      "inputs": [],
      "name": "token",
      "outputs": [
        {
          "internalType": "contract powerToken",
          "name": "",
          "type": "address"
        }
      ],
      "stateMutability": "view",
      "type": "function",
      "constant": true
    },
    {
      "inputs": [],
      "name": "tokenPrice",
      "outputs": [
        {
          "internalType": "uint256",
          "name": "",
          "type": "uint256"
        }
      ],
      "stateMutability": "view",
      "type": "function",
      "constant": true
    },
    {
      "inputs": [
        {
          "internalType": "address",
          "name": "newOwner",
          "type": "address"
        }
      ],
      "name": "transferOwnership",
      "outputs": [],
      "stateMutability": "nonpayable",
      "type": "function"
    },
    {
      "inputs": [
        {
          "internalType": "address",
          "name": "",
          "type": "address"
        }
      ],
      "name": "userBattery",
      "outputs": [
        {
          "internalType": "uint256",
          "name": "id",
          "type": "uint256"
        },
        {
          "internalType": "uint256",
          "name": "percent",
          "type": "uint256"
        },
        {
          "internalType": "enum swap.batLocation",
          "name": "location",
          "type": "uint8"
        }
      ],
      "stateMutability": "view",
      "type": "function",
      "constant": true
    },
    {
      "inputs": [
        {
          "internalType": "address",
          "name": "",
          "type": "address"
        }
      ],
      "name": "userStates",
      "outputs": [
        {
          "internalType": "enum swap.userState",
          "name": "",
          "type": "uint8"
        }
      ],
      "stateMutability": "view",
      "type": "function",
      "constant": true
    },
    {
      "stateMutability": "payable",
      "type": "receive",
      "payable": true
    },
    {
      "inputs": [],
      "name": "buyTokens",
      "outputs": [],
      "stateMutability": "payable",
      "type": "function",
      "payable": true
    },
    {
      "inputs": [
        {
          "internalType": "address",
          "name": "_user",
          "type": "address"
        }
      ],
      "name": "depositTokens",
      "outputs": [],
      "stateMutability": "nonpayable",
      "type": "function"
    },
    {
      "inputs": [
        {
          "internalType": "uint256",
          "name": "_batId",
          "type": "uint256"
        },
        {
          "internalType": "address",
          "name": "_user",
          "type": "address"
        }
      ],
      "name": "depositBattery",
      "outputs": [],
      "stateMutability": "nonpayable",
      "type": "function"
    },
    {
      "inputs": [
        {
          "internalType": "uint256",
          "name": "_batId",
          "type": "uint256"
        },
        {
          "internalType": "address",
          "name": "_user",
          "type": "address"
        }
      ],
      "name": "collectBattery",
      "outputs": [],
      "stateMutability": "nonpayable",
      "type": "function"
    },
    {
      "inputs": [
        {
          "internalType": "address",
          "name": "_user",
          "type": "address"
        }
      ],
      "name": "getBalance",
      "outputs": [
        {
          "internalType": "uint256",
          "name": "",
          "type": "uint256"
        }
      ],
      "stateMutability": "view",
      "type": "function",
      "constant": true
    },
    {
      "inputs": [],
      "name": "totalSupply",
      "outputs": [
        {
          "internalType": "uint256",
          "name": "",
          "type": "uint256"
        }
      ],
      "stateMutability": "view",
      "type": "function",
      "constant": true
    },
    {
      "inputs": [],
      "name": "withdraw",
      "outputs": [],
      "stateMutability": "nonpayable",
      "type": "function"
    },
    {
      "inputs": [
        {
          "internalType": "address[]",
          "name": "_userAddresses",
          "type": "address[]"
        }
      ],
      "name": "init",
      "outputs": [],
      "stateMutability": "nonpayable",
      "type": "function"
    }
  ],
  "bytecode": "0x608060405260008060146101000a81548160ff021916908315150217905550600180556101906005556000600660006101000a81548160ff02191690831515021790555060405162002d0d38038062002d0d833981810160405281019062000068919062000352565b620000886200007c6200016260201b60201c565b6200016a60201b60201c565b620000986200022e60201b60201c565b33600360006101000a81548173ffffffffffffffffffffffffffffffffffffffff021916908373ffffffffffffffffffffffffffffffffffffffff16021790555030600460006101000a81548173ffffffffffffffffffffffffffffffffffffffff021916908373ffffffffffffffffffffffffffffffffffffffff16021790555080600260006101000a81548173ffffffffffffffffffffffffffffffffffffffff021916908373ffffffffffffffffffffffffffffffffffffffff1602179055505062000407565b600033905090565b60008060009054906101000a900473ffffffffffffffffffffffffffffffffffffffff169050816000806101000a81548173ffffffffffffffffffffffffffffffffffffffff021916908373ffffffffffffffffffffffffffffffffffffffff1602179055508173ffffffffffffffffffffffffffffffffffffffff168173ffffffffffffffffffffffffffffffffffffffff167f8be0079c531659141344cd1fd0a4f28419497f9722a3daafe3b4186f6b6457e060405160405180910390a35050565b6200023e6200016260201b60201c565b73ffffffffffffffffffffffffffffffffffffffff1662000264620002bf60201b60201c565b73ffffffffffffffffffffffffffffffffffffffff1614620002bd576040517f08c379a0000000000000000000000000000000000000000000000000000000008152600401620002b490620003e5565b60405180910390fd5b565b60008060009054906101000a900473ffffffffffffffffffffffffffffffffffffffff16905090565b600080fd5b600073ffffffffffffffffffffffffffffffffffffffff82169050919050565b60006200031a82620002ed565b9050919050565b6200032c816200030d565b81146200033857600080fd5b50565b6000815190506200034c8162000321565b92915050565b6000602082840312156200036b576200036a620002e8565b5b60006200037b848285016200033b565b91505092915050565b600082825260208201905092915050565b7f4f776e61626c653a2063616c6c6572206973206e6f7420746865206f776e6572600082015250565b6000620003cd60208362000384565b9150620003da8262000395565b602082019050919050565b600060208201905081810360008301526200040081620003be565b9050919050565b6128f680620004176000396000f3fe60806040526004361061010d5760003560e01c80638da5cb5b11610095578063d89239b011610064578063d89239b0146103f1578063f2fde38b1461041c578063f8b2cb4f14610445578063fc0c546a14610482578063fd58835b146104ad576101d2565b80638da5cb5b14610354578063b674ec971461037f578063c6044c46146103be578063d0febe4c146103e7576101d2565b80633c4c9dd7116100dc5780633c4c9dd7146102a75780633ccfd60b146102d257806356bccf91146102e9578063715018a6146103125780637ff9b59614610329576101d2565b80630ecc535f146101d757806318160ddd14610214578063251574001461023f5780632a5f24851461027e576101d2565b366101d257600660009054906101000a900460ff1615610162576040517f08c379a000000000000000000000000000000000000000000000000000000000815260040161015990611a66565b60405180910390fd5b6001600660006101000a81548160ff0219169083151502179055507f88a5966d370b9919b20f3e2c13ff65706f196a4e32cc2c12bf57088f8852587433346040516101ae929190611ae0565b60405180910390a16000600660006101000a81548160ff0219169083151502179055005b600080fd5b3480156101e357600080fd5b506101fe60048036038101906101f99190611b3f565b6104d6565b60405161020b9190611be3565b60405180910390f35b34801561022057600080fd5b506102296104f6565b6040516102369190611bfe565b60405180910390f35b34801561024b57600080fd5b5061026660048036038101906102619190611c45565b61058e565b60405161027593929190611cba565b60405180910390f35b34801561028a57600080fd5b506102a560048036038101906102a09190611cf1565b6105c5565b005b3480156102b357600080fd5b506102bc6108b8565b6040516102c99190611d52565b60405180910390f35b3480156102de57600080fd5b506102e76108de565b005b3480156102f557600080fd5b50610310600480360381019061030b9190611b3f565b610b3a565b005b34801561031e57600080fd5b50610327610dca565b005b34801561033557600080fd5b5061033e610dde565b60405161034b9190611bfe565b60405180910390f35b34801561036057600080fd5b50610369610de4565b6040516103769190611d6d565b60405180910390f35b34801561038b57600080fd5b506103a660048036038101906103a19190611b3f565b610e0d565b6040516103b593929190611cba565b60405180910390f35b3480156103ca57600080fd5b506103e560048036038101906103e09190611ded565b610e44565b005b6103ef611115565b005b3480156103fd57600080fd5b506104066113b1565b6040516104139190611bfe565b60405180910390f35b34801561042857600080fd5b50610443600480360381019061043e9190611b3f565b6113b7565b005b34801561045157600080fd5b5061046c60048036038101906104679190611b3f565b61143a565b6040516104799190611bfe565b60405180910390f35b34801561048e57600080fd5b506104976114df565b6040516104a49190611e99565b60405180910390f35b3480156104b957600080fd5b506104d460048036038101906104cf9190611cf1565b611505565b005b60076020528060005260406000206000915054906101000a900460ff1681565b6000600260009054906101000a900473ffffffffffffffffffffffffffffffffffffffff1673ffffffffffffffffffffffffffffffffffffffff166318160ddd6040518163ffffffff1660e01b8152600401602060405180830381865afa158015610565573d6000803e3d6000fd5b505050506040513d601f19601f820116820180604052508101906105899190611ec9565b905090565b60086020528060005260406000206000915090508060000154908060010154908060020160009054906101000a900460ff16905083565b600660009054906101000a900460ff1615610615576040517f08c379a000000000000000000000000000000000000000000000000000000000815260040161060c90611a66565b60405180910390fd5b6001600660006101000a81548160ff02191690831515021790555081600960008373ffffffffffffffffffffffffffffffffffffffff1673ffffffffffffffffffffffffffffffffffffffff16815260200190815260200160002060000154146106b4576040517f08c379a00000000000000000000000000000000000000000000000000000000081526004016106ab90611f68565b60405180910390fd5b600060018111156106c8576106c7611b6c565b5b6008600084815260200190815260200160002060020160009054906101000a900460ff1660018111156106fe576106fd611b6c565b5b1461073e576040517f08c379a000000000000000000000000000000000000000000000000000000000815260040161073590611fd4565b60405180910390fd5b60016008600084815260200190815260200160002060020160006101000a81548160ff0219169083600181111561077857610777611b6c565b5b02179055506001600760008373ffffffffffffffffffffffffffffffffffffffff1673ffffffffffffffffffffffffffffffffffffffff16815260200190815260200160002060006101000a81548160ff021916908360028111156107e0576107df611b6c565b5b0217905550600960008273ffffffffffffffffffffffffffffffffffffffff1673ffffffffffffffffffffffffffffffffffffffff16815260200190815260200160002060008082016000905560018201600090556002820160006101000a81549060ff021916905550508073ffffffffffffffffffffffffffffffffffffffff167f18184db950457e5be3081440f13ddfc73c469b6d849a0addf29467e3c3a3eaa5836040516108919190611bfe565b60405180910390a26000600660006101000a81548160ff0219169083151502179055505050565b600360009054906101000a900473ffffffffffffffffffffffffffffffffffffffff1681565b600360009054906101000a900473ffffffffffffffffffffffffffffffffffffffff1673ffffffffffffffffffffffffffffffffffffffff163373ffffffffffffffffffffffffffffffffffffffff161461096e576040517f08c379a000000000000000000000000000000000000000000000000000000000815260040161096590612066565b60405180910390fd5b600660009054906101000a900460ff16156109be576040517f08c379a00000000000000000000000000000000000000000000000000000000081526004016109b590611a66565b60405180910390fd5b6001600660006101000a81548160ff021916908315150217905550600047905060008111610a21576040517f08c379a0000000000000000000000000000000000000000000000000000000008152600401610a18906120d2565b60405180910390fd5b60003373ffffffffffffffffffffffffffffffffffffffff1682604051610a4790612123565b60006040518083038185875af1925050503d8060008114610a84576040519150601f19603f3d011682016040523d82523d6000602084013e610a89565b606091505b5050905080610acd576040517f08c379a0000000000000000000000000000000000000000000000000000000008152600401610ac490612184565b60405180910390fd5b3373ffffffffffffffffffffffffffffffffffffffff167f884edad9ce6fa2440d8a54cc123490eb96d2768479d49ff9c7366125a942436483604051610b139190611bfe565b60405180910390a250506000600660006101000a81548160ff021916908315150217905550565b600660009054906101000a900460ff1615610b8a576040517f08c379a0000000000000000000000000000000000000000000000000000000008152600401610b8190611a66565b60405180910390fd5b6001600660006101000a81548160ff0219169083151502179055506064610bb08261143a565b1015610bf1576040517f08c379a0000000000000000000000000000000000000000000000000000000008152600401610be8906121f0565b60405180910390fd5b600260009054906101000a900473ffffffffffffffffffffffffffffffffffffffff1673ffffffffffffffffffffffffffffffffffffffff166323b872dd82600460009054906101000a900473ffffffffffffffffffffffffffffffffffffffff1660646040518463ffffffff1660e01b8152600401610c739392919061226c565b6020604051808303816000875af1158015610c92573d6000803e3d6000fd5b505050506040513d601f19601f82011682018060405250810190610cb691906122db565b610cf5576040517f08c379a0000000000000000000000000000000000000000000000000000000008152600401610cec90612354565b60405180910390fd5b6000600760008373ffffffffffffffffffffffffffffffffffffffff1673ffffffffffffffffffffffffffffffffffffffff16815260200190815260200160002060006101000a81548160ff02191690836002811115610d5857610d57611b6c565b5b02179055508073ffffffffffffffffffffffffffffffffffffffff167fe1fffcc4923d04b559f4d29a8bfc6cda04eb5b0d3c460751c2402c5c5cc9109c6064604051610da49190612374565b60405180910390a26000600660006101000a81548160ff02191690831515021790555050565b610dd26118bf565b610ddc600061193d565b565b60055481565b60008060009054906101000a900473ffffffffffffffffffffffffffffffffffffffff16905090565b60096020528060005260406000206000915090508060000154908060010154908060020160009054906101000a900460ff16905083565b610e4c6118bf565b600060149054906101000a900460ff1615610e9c576040517f08c379a0000000000000000000000000000000000000000000000000000000008152600401610e93906123db565b60405180910390fd5b6001600060146101000a81548160ff02191690831515021790555060005b600c811015610f7a576040518060600160405280600154815260200160648152602001600180811115610ef057610eef611b6c565b5b815250600860006001548152602001908152602001600020600082015181600001556020820151816001015560408201518160020160006101000a81548160ff02191690836001811115610f4757610f46611b6c565b5b021790555090505060016000815480929190610f629061242a565b91905055508080610f729061242a565b915050610eba565b5060005b8282905081101561111057604051806060016040528060015481526020016014815260200160006001811115610fb757610fb6611b6c565b5b815250600860006001548152602001908152602001600020600082015181600001556020820151816001015560408201518160020160006101000a81548160ff0219169083600181111561100e5761100d611b6c565b5b02179055509050506008600060015481526020019081526020016000206009600085858581811061104257611041612472565b5b90506020020160208101906110579190611b3f565b73ffffffffffffffffffffffffffffffffffffffff1673ffffffffffffffffffffffffffffffffffffffff16815260200190815260200160002060008201548160000155600182015481600101556002820160009054906101000a900460ff168160020160006101000a81548160ff021916908360018111156110dd576110dc611b6c565b5b0217905550905050600160008154809291906110f89061242a565b919050555080806111089061242a565b915050610f7e565b505050565b600660009054906101000a900460ff1615611165576040517f08c379a000000000000000000000000000000000000000000000000000000000815260040161115c90611a66565b60405180910390fd5b6001600660006101000a81548160ff021916908315150217905550606460055461118f91906124a1565b34116111d0576040517f08c379a00000000000000000000000000000000000000000000000000000000081526004016111c79061257b565b60405180910390fd5b3373ffffffffffffffffffffffffffffffffffffffff16313410611229576040517f08c379a00000000000000000000000000000000000000000000000000000000081526004016112209061260d565b60405180910390fd5b600034905060006005548261123e919061265c565b905060006005548261125091906124a1565b905060008184611260919061268d565b9050600260009054906101000a900473ffffffffffffffffffffffffffffffffffffffff1673ffffffffffffffffffffffffffffffffffffffff166340c10f1933856040518363ffffffff1660e01b81526004016112bf929190611ae0565b600060405180830381600087803b1580156112d957600080fd5b505af11580156112ed573d6000803e3d6000fd5b505050503373ffffffffffffffffffffffffffffffffffffffff167f0f6798a560793a54c3bcfe86a93cde1e73087d944c0ea20544137d4121396885846040516113379190611bfe565b60405180910390a26000811115611390573373ffffffffffffffffffffffffffffffffffffffff166108fc829081150290604051600060405180830381858888f1935050505015801561138e573d6000803e3d6000fd5b505b505050506000600660006101000a81548160ff021916908315150217905550565b60015481565b6113bf6118bf565b600073ffffffffffffffffffffffffffffffffffffffff168173ffffffffffffffffffffffffffffffffffffffff160361142e576040517f08c379a000000000000000000000000000000000000000000000000000000000815260040161142590612733565b60405180910390fd5b6114378161193d565b50565b6000600260009054906101000a900473ffffffffffffffffffffffffffffffffffffffff1673ffffffffffffffffffffffffffffffffffffffff166370a08231836040518263ffffffff1660e01b81526004016114979190611d6d565b602060405180830381865afa1580156114b4573d6000803e3d6000fd5b505050506040513d601f19601f820116820180604052508101906114d89190611ec9565b9050919050565b600260009054906101000a900473ffffffffffffffffffffffffffffffffffffffff1681565b600660009054906101000a900460ff1615611555576040517f08c379a000000000000000000000000000000000000000000000000000000000815260040161154c90611a66565b60405180910390fd5b6001600660006101000a81548160ff02191690831515021790555060018081111561158357611582611b6c565b5b6008600084815260200190815260200160002060020160009054906101000a900460ff1660018111156115b9576115b8611b6c565b5b146115f9576040517f08c379a00000000000000000000000000000000000000000000000000000000081526004016115f09061279f565b60405180910390fd5b605060086000848152602001908152602001600020600101541015611653576040517f08c379a000000000000000000000000000000000000000000000000000000000815260040161164a9061280b565b60405180910390fd5b60006008600084815260200190815260200160002060020160006101000a81548160ff0219169083600181111561168d5761168c611b6c565b5b021790555060086000838152602001908152602001600020600960008373ffffffffffffffffffffffffffffffffffffffff1673ffffffffffffffffffffffffffffffffffffffff16815260200190815260200160002060008201548160000155600182015481600101556002820160009054906101000a900460ff168160020160006101000a81548160ff021916908360018111156117305761172f611b6c565b5b02179055509050506002600760008373ffffffffffffffffffffffffffffffffffffffff1673ffffffffffffffffffffffffffffffffffffffff16815260200190815260200160002060006101000a81548160ff0219169083600281111561179b5761179a611b6c565b5b0217905550600260009054906101000a900473ffffffffffffffffffffffffffffffffffffffff1673ffffffffffffffffffffffffffffffffffffffff16639dc29fac600460009054906101000a900473ffffffffffffffffffffffffffffffffffffffff1660646040518363ffffffff1660e01b815260040161182092919061282b565b600060405180830381600087803b15801561183a57600080fd5b505af115801561184e573d6000803e3d6000fd5b505050508073ffffffffffffffffffffffffffffffffffffffff167fca8e808aa6f6e9e1f098cc0221cabeda0007151124f8bf3979e727492efca0f6836040516118989190611bfe565b60405180910390a26000600660006101000a81548160ff0219169083151502179055505050565b6118c7611a01565b73ffffffffffffffffffffffffffffffffffffffff166118e5610de4565b73ffffffffffffffffffffffffffffffffffffffff161461193b576040517f08c379a0000000000000000000000000000000000000000000000000000000008152600401611932906128a0565b60405180910390fd5b565b60008060009054906101000a900473ffffffffffffffffffffffffffffffffffffffff169050816000806101000a81548173ffffffffffffffffffffffffffffffffffffffff021916908373ffffffffffffffffffffffffffffffffffffffff1602179055508173ffffffffffffffffffffffffffffffffffffffff168173ffffffffffffffffffffffffffffffffffffffff167f8be0079c531659141344cd1fd0a4f28419497f9722a3daafe3b4186f6b6457e060405160405180910390a35050565b600033905090565b600082825260208201905092915050565b7f5265656e7472616e637920677561726400000000000000000000000000000000600082015250565b6000611a50601083611a09565b9150611a5b82611a1a565b602082019050919050565b60006020820190508181036000830152611a7f81611a43565b9050919050565b600073ffffffffffffffffffffffffffffffffffffffff82169050919050565b6000611ab182611a86565b9050919050565b611ac181611aa6565b82525050565b6000819050919050565b611ada81611ac7565b82525050565b6000604082019050611af56000830185611ab8565b611b026020830184611ad1565b9392505050565b600080fd5b600080fd5b611b1c81611aa6565b8114611b2757600080fd5b50565b600081359050611b3981611b13565b92915050565b600060208284031215611b5557611b54611b09565b5b6000611b6384828501611b2a565b91505092915050565b7f4e487b7100000000000000000000000000000000000000000000000000000000600052602160045260246000fd5b60038110611bac57611bab611b6c565b5b50565b6000819050611bbd82611b9b565b919050565b6000611bcd82611baf565b9050919050565b611bdd81611bc2565b82525050565b6000602082019050611bf86000830184611bd4565b92915050565b6000602082019050611c136000830184611ad1565b92915050565b611c2281611ac7565b8114611c2d57600080fd5b50565b600081359050611c3f81611c19565b92915050565b600060208284031215611c5b57611c5a611b09565b5b6000611c6984828501611c30565b91505092915050565b60028110611c8357611c82611b6c565b5b50565b6000819050611c9482611c72565b919050565b6000611ca482611c86565b9050919050565b611cb481611c99565b82525050565b6000606082019050611ccf6000830186611ad1565b611cdc6020830185611ad1565b611ce96040830184611cab565b949350505050565b60008060408385031215611d0857611d07611b09565b5b6000611d1685828601611c30565b9250506020611d2785828601611b2a565b9150509250929050565b6000611d3c82611a86565b9050919050565b611d4c81611d31565b82525050565b6000602082019050611d676000830184611d43565b92915050565b6000602082019050611d826000830184611ab8565b92915050565b600080fd5b600080fd5b600080fd5b60008083601f840112611dad57611dac611d88565b5b8235905067ffffffffffffffff811115611dca57611dc9611d8d565b5b602083019150836020820283011115611de657611de5611d92565b5b9250929050565b60008060208385031215611e0457611e03611b09565b5b600083013567ffffffffffffffff811115611e2257611e21611b0e565b5b611e2e85828601611d97565b92509250509250929050565b6000819050919050565b6000611e5f611e5a611e5584611a86565b611e3a565b611a86565b9050919050565b6000611e7182611e44565b9050919050565b6000611e8382611e66565b9050919050565b611e9381611e78565b82525050565b6000602082019050611eae6000830184611e8a565b92915050565b600081519050611ec381611c19565b92915050565b600060208284031215611edf57611ede611b09565b5b6000611eed84828501611eb4565b91505092915050565b7f42617474657279206973206e6f7420696e2075736572277320706f737365737360008201527f696f6e0000000000000000000000000000000000000000000000000000000000602082015250565b6000611f52602383611a09565b9150611f5d82611ef6565b604082019050919050565b60006020820190508181036000830152611f8181611f45565b9050919050565b7f42617474657279206973206e6f7420696e20612076656869636c650000000000600082015250565b6000611fbe601b83611a09565b9150611fc982611f88565b602082019050919050565b60006020820190508181036000830152611fed81611fb1565b9050919050565b7f4f6e6c7920746865206f776e65722063616e2063616c6c20746869732066756e60008201527f6374696f6e000000000000000000000000000000000000000000000000000000602082015250565b6000612050602583611a09565b915061205b82611ff4565b604082019050919050565b6000602082019050818103600083015261207f81612043565b9050919050565b7f4e6f204574686572206c65667420746f20776974686472617700000000000000600082015250565b60006120bc601983611a09565b91506120c782612086565b602082019050919050565b600060208201905081810360008301526120eb816120af565b9050919050565b600081905092915050565b50565b600061210d6000836120f2565b9150612118826120fd565b600082019050919050565b600061212e82612100565b9150819050919050565b7f4661696c656420746f2073656e64204574686572000000000000000000000000600082015250565b600061216e601483611a09565b915061217982612138565b602082019050919050565b6000602082019050818103600083015261219d81612161565b9050919050565b7f496e73756666696369656e7420746f6b656e2062616c616e6365000000000000600082015250565b60006121da601a83611a09565b91506121e5826121a4565b602082019050919050565b60006020820190508181036000830152612209816121cd565b9050919050565b600061221b82611e66565b9050919050565b61222b81612210565b82525050565b6000819050919050565b600061225661225161224c84612231565b611e3a565b611ac7565b9050919050565b6122668161223b565b82525050565b60006060820190506122816000830186611ab8565b61228e6020830185612222565b61229b604083018461225d565b949350505050565b60008115159050919050565b6122b8816122a3565b81146122c357600080fd5b50565b6000815190506122d5816122af565b92915050565b6000602082840312156122f1576122f0611b09565b5b60006122ff848285016122c6565b91505092915050565b7f546f6b656e207472616e73666572206661696c65640000000000000000000000600082015250565b600061233e601583611a09565b915061234982612308565b602082019050919050565b6000602082019050818103600083015261236d81612331565b9050919050565b6000602082019050612389600083018461225d565b92915050565b7f416c726561647920696e697469616c697a656400000000000000000000000000600082015250565b60006123c5601383611a09565b91506123d08261238f565b602082019050919050565b600060208201905081810360008301526123f4816123b8565b9050919050565b7f4e487b7100000000000000000000000000000000000000000000000000000000600052601160045260246000fd5b600061243582611ac7565b91507fffffffffffffffffffffffffffffffffffffffffffffffffffffffffffffffff8203612467576124666123fb565b5b600182019050919050565b7f4e487b7100000000000000000000000000000000000000000000000000000000600052603260045260246000fd5b60006124ac82611ac7565b91506124b783611ac7565b92508282026124c581611ac7565b915082820484148315176124dc576124db6123fb565b5b5092915050565b7f41206d696e696d756d206f66203430303030207765692069732072657175697260008201527f656420746f206275792061206d696e696d756d206f662031303020746f6b656e60208201527f7300000000000000000000000000000000000000000000000000000000000000604082015250565b6000612565604183611a09565b9150612570826124e3565b606082019050919050565b6000602082019050818103600083015261259481612558565b9050919050565b7f496e73756666696369656e74204554482062616c616e636520746f206275792060008201527f746f6b656e730000000000000000000000000000000000000000000000000000602082015250565b60006125f7602683611a09565b91506126028261259b565b604082019050919050565b60006020820190508181036000830152612626816125ea565b9050919050565b7f4e487b7100000000000000000000000000000000000000000000000000000000600052601260045260246000fd5b600061266782611ac7565b915061267283611ac7565b9250826126825761268161262d565b5b828204905092915050565b600061269882611ac7565b91506126a383611ac7565b92508282039050818111156126bb576126ba6123fb565b5b92915050565b7f4f776e61626c653a206e6577206f776e657220697320746865207a65726f206160008201527f6464726573730000000000000000000000000000000000000000000000000000602082015250565b600061271d602683611a09565b9150612728826126c1565b604082019050919050565b6000602082019050818103600083015261274c81612710565b9050919050565b7f42617474657279206973206e6f74206174207468652073746174696f6e000000600082015250565b6000612789601d83611a09565b915061279482612753565b602082019050919050565b600060208201905081810360008301526127b88161277c565b9050919050565b7f42617474657279206973206e6f74206368617267656420656e6f756768000000600082015250565b60006127f5601d83611a09565b9150612800826127bf565b602082019050919050565b60006020820190508181036000830152612824816127e8565b9050919050565b60006040820190506128406000830185612222565b61284d602083018461225d565b9392505050565b7f4f776e61626c653a2063616c6c6572206973206e6f7420746865206f776e6572600082015250565b600061288a602083611a09565b915061289582612854565b602082019050919050565b600060208201905081810360008301526128b98161287d565b905091905056fea26469706673582212202f0aa30f812ba923e5290ade51d0e6b7cc6502b3d5fb856425c201f22479a8b564736f6c63430008130033",
  "immutableReferences": {},
  "source": "// SPDX-License-Identifier: MIT\npragma solidity 0.8.19;\n\nimport \"./powerToken.sol\";\nimport \"@openzeppelin/contracts/access/Ownable.sol\";\n\n\ncontract swap is Ownable {\n  bool private initialized = false; //Only used for init\n  uint256 public nextBatteryId = 1; //Only used for init\n  powerToken public token;\n  address payable public swapOwner;\n  address payable contractAddress;\n  uint256 public tokenPrice = 400; //400 wei per token\n  bool internal reentrancyLock = false; //Reentrancy guard\n\n  //Enum for battery location\n  enum batLocation {\n    VEHICLE,\n    STATION\n  }\n\n  //Enum for user state\n  enum userState {\n    SPENT,\n    DEPOSITED,\n    COLLECTED\n  }\n\n  mapping(address => userState) public userStates; //Mapping to track user state during the swap process\n\n  //Battery structure to maintain the state of the battery\n  struct battery {\n    uint256 id;\n    uint256 percent;\n    //address lastUser;\n    batLocation location;\n  }\n\n  mapping (uint256 => battery) public batteryMap; //Mapping ID to Battery\n\n  mapping (address => battery) public userBattery; //Mapping user to battery\n\n  //Event to log the minting of tokens\n  event Mint(address indexed to, uint256 value);\n\n  //Event to log deposit of tokens\n  event Deposit(address indexed from, uint256 value);\n\n  //Event to log the deposit of battery\n  event BatteryDeposit(address indexed from, uint256 batId);\n\n  //Event to log the collection of battery\n  event BatteryCollect(address indexed from, uint256 batId);\n\n  //Event to log withdrawal of ETH by owner\n  event Withdraw(address indexed owner, uint256 value);\n\n  //Event for recieve\n  event Received(address, uint);\n\n\n  //Modifier ownerOnly to restrict access to the owner\n  modifier ownerOnly() {\n    require(msg.sender == swapOwner, \"Only the owner can call this function\");\n    _;\n  }\n\n  //Modifier for reentrancy guard\n  modifier reentrancyGuard() {\n    require(!reentrancyLock, \"Reentrancy guard\");\n    reentrancyLock = true;\n    _;\n    reentrancyLock = false;\n  }\n\n  //Constructor to deploy the contract with the token's address\n  constructor(address _tokenAddress) payable onlyOwner(){\n    swapOwner = payable(msg.sender); //Set the owner of the contract to the EOA that deployed the contract\n    contractAddress = payable(address(this));\n    token = powerToken(_tokenAddress); //Deploy the contract with the token's address\n  }\n\n  //Receive function to accept ether\n  receive() external payable reentrancyGuard(){\n    //Emit an event to log the amount of ether received\n    emit Received(msg.sender, msg.value);\n  }\n\n  //Function to buy tokens\n  function buyTokens() public payable reentrancyGuard() {\n    //Ensure user can buy at least one token\n    require(msg.value > tokenPrice * 100, \"A minimum of 40000 wei is required to buy a minimum of 100 tokens\");\n    //Ensure user has enough balance to buy tokens\n    require(msg.value < msg.sender.balance, \"Insufficient ETH balance to buy tokens\");\n    uint256 amount = msg.value;\n    uint256 tokens = amount / tokenPrice; //Calculate the number of tokens to transfer \n    uint256 cost = tokens * tokenPrice; //Calculate the cost of the tokens\n    uint256 refund = amount - cost; //Calculate the refund amount\n    token.mint(msg.sender, tokens); //Transfer tokens to user\n    emit Mint(msg.sender, tokens); //Emit an event to log the minting of tokens\n\n    //Refund the user if they overpaid\n    if (refund > 0) {\n      payable(msg.sender).transfer(refund);\n    }\n  }\n\n  // Users deposit tokens to initiate the swap process\n  function depositTokens(address _user) public reentrancyGuard(){\n    require(getBalance(_user) >= 100, \"Insufficient token balance\");\n    require(token.transferFrom(_user, contractAddress, 100), \"Token transfer failed\");\n    //require(token.transfer(contractAddress, 100), \"Token transfer failed\"); //Transfer tokens to contract\n    userStates[_user] = userState.SPENT; //Update user state\n    emit Deposit(_user, 100); //Emit an event to log the deposit of tokens\n  }\n\n  //Function to deposit the battery\n  function depositBattery(uint256 _batId, address _user) public reentrancyGuard(){\n    //Ensure battery ID belongs to the user\n    require(userBattery[_user].id == _batId, \"Battery is not in user's possession\");\n    //Ensure battery is in the vehicle\n    require(batteryMap[_batId].location == batLocation.VEHICLE, \"Battery is not in a vehicle\");\n    //Modify the battery location to the battery station\n    batteryMap[_batId].location = batLocation.STATION;\n    //Update the user state\n    userStates[_user] = userState.DEPOSITED;\n    //Remove the battery from the user\n    delete userBattery[_user];\n    //Emit an event to log the deposit of the battery\n    emit BatteryDeposit(_user, _batId);\n  }\n\n  // Once verified, the user can collect a charged battery\n  function collectBattery(uint256 _batId, address _user) public reentrancyGuard(){\n    //Ensure battery ID belongs to the station\n    require(batteryMap[_batId].location == batLocation.STATION, \"Battery is not at the station\");\n    //Ensure battery is charged\n    require(batteryMap[_batId].percent >=80, \"Battery is not charged enough\");\n    //Modify the battery location to the vehicle\n    batteryMap[_batId].location = batLocation.VEHICLE;\n    //Modify the last user to the calling user\n    userBattery[_user] = batteryMap[_batId];\n    //Update the user state\n    userStates[_user] = userState.COLLECTED;\n    //Burn tokens from contract\n    token.burn(contractAddress, 100);\n    //Emit an event to log the collection of the battery\n    emit BatteryCollect(_user, _batId);\n  }\n  \n\n  //Get Balance of the calling user\n  function getBalance(address _user) public view returns (uint256) {\n    return token.balanceOf(_user);\n  }\n\n  //Returns total Supply\n  function totalSupply() public view returns (uint256) {\n    return token.totalSupply();\n  }\n\n  //Function to let contract owner to withdraw ether\n  function withdraw() public ownerOnly reentrancyGuard(){\n    uint amount = address(this).balance;\n    require(amount > 0, \"No Ether left to withdraw\");\n\n    (bool success, ) = msg.sender.call{value: amount}(\"\");\n    require(success, \"Failed to send Ether\");\n    emit Withdraw(msg.sender, amount); //Emit an event to log the withdrawal of ether\n  }\n\n  // Function to initialize the contract\n    function init(address[] calldata _userAddresses) external onlyOwner {\n        require(!initialized, \"Already initialized\");\n        initialized = true;\n\n        // Create 12 batteries belonging to the station\n        for (uint i = 0; i < 12; i++) {\n            batteryMap[nextBatteryId] = battery(nextBatteryId, 100, batLocation.STATION); // Fully charged\n            nextBatteryId++;\n        }\n\n        // Create three batteries belonging to users\n        for (uint i = 0; i < _userAddresses.length; i++) {\n            batteryMap[nextBatteryId] = battery(nextBatteryId, 20, batLocation.VEHICLE); // Assuming 20% charge\n            userBattery[_userAddresses[i]] = batteryMap[nextBatteryId];\n            nextBatteryId++;\n        }\n    }\n}\n",
  "sourcePath": "/Users/Manan/MDX/Blockchain2/battery-swap/contracts/swap.sol",
  "compiler": {
    "name": "solc",
    "version": "0.8.19+commit.7dd6d404.Emscripten.clang"
  },
  "schemaVersion": "3.4.16",
  "updatedAt": "2024-04-14T11:50:23.925Z",
  "networkType": "ethereum",
  "devdoc": {
    "kind": "dev",
    "methods": {
      "owner()": {
        "details": "Returns the address of the current owner."
      },
      "renounceOwnership()": {
        "details": "Leaves the contract without owner. It will not be possible to call `onlyOwner` functions. Can only be called by the current owner. NOTE: Renouncing ownership will leave the contract without an owner, thereby disabling any functionality that is only available to the owner."
      },
      "transferOwnership(address)": {
        "details": "Transfers ownership of the contract to a new account (`newOwner`). Can only be called by the current owner."
      }
    },
    "version": 1
  },
  "userdoc": {
    "kind": "user",
    "methods": {},
    "version": 1
  }
}