{
  "contractName": "swap",
  "abi": [
    {
      "inputs": [
        {
          "internalType": "address",
          "name": "_tokenAddress",
          "type": "address"
        }
      ],
      "stateMutability": "payable",
      "type": "constructor",
      "payable": true
    },
    {
      "anonymous": false,
      "inputs": [
        {
          "indexed": true,
          "internalType": "address",
          "name": "from",
          "type": "address"
        },
        {
          "indexed": false,
          "internalType": "uint256",
          "name": "batId",
          "type": "uint256"
        }
      ],
      "name": "BatteryCollect",
      "type": "event"
    },
    {
      "anonymous": false,
      "inputs": [
        {
          "indexed": true,
          "internalType": "address",
          "name": "from",
          "type": "address"
        },
        {
          "indexed": false,
          "internalType": "uint256",
          "name": "batId",
          "type": "uint256"
        }
      ],
      "name": "BatteryDeposit",
      "type": "event"
    },
    {
      "anonymous": false,
      "inputs": [
        {
          "indexed": true,
          "internalType": "address",
          "name": "from",
          "type": "address"
        },
        {
          "indexed": false,
          "internalType": "uint256",
          "name": "value",
          "type": "uint256"
        }
      ],
      "name": "Deposit",
      "type": "event"
    },
    {
      "anonymous": false,
      "inputs": [
        {
          "indexed": true,
          "internalType": "address",
          "name": "to",
          "type": "address"
        },
        {
          "indexed": false,
          "internalType": "uint256",
          "name": "value",
          "type": "uint256"
        }
      ],
      "name": "Mint",
      "type": "event"
    },
    {
      "anonymous": false,
      "inputs": [
        {
          "indexed": true,
          "internalType": "address",
          "name": "previousOwner",
          "type": "address"
        },
        {
          "indexed": true,
          "internalType": "address",
          "name": "newOwner",
          "type": "address"
        }
      ],
      "name": "OwnershipTransferred",
      "type": "event"
    },
    {
      "anonymous": false,
      "inputs": [
        {
          "indexed": true,
          "internalType": "address",
          "name": "owner",
          "type": "address"
        },
        {
          "indexed": false,
          "internalType": "uint256",
          "name": "value",
          "type": "uint256"
        }
      ],
      "name": "Withdraw",
      "type": "event"
    },
    {
      "inputs": [
        {
          "internalType": "uint256",
          "name": "",
          "type": "uint256"
        }
      ],
      "name": "batteryMap",
      "outputs": [
        {
          "internalType": "uint256",
          "name": "id",
          "type": "uint256"
        },
        {
          "internalType": "uint256",
          "name": "percent",
          "type": "uint256"
        },
        {
          "internalType": "enum swap.batLocation",
          "name": "location",
          "type": "uint8"
        }
      ],
      "stateMutability": "view",
      "type": "function",
      "constant": true
    },
    {
      "inputs": [],
      "name": "nextBatteryId",
      "outputs": [
        {
          "internalType": "uint256",
          "name": "",
          "type": "uint256"
        }
      ],
      "stateMutability": "view",
      "type": "function",
      "constant": true
    },
    {
      "inputs": [],
      "name": "owner",
      "outputs": [
        {
          "internalType": "address",
          "name": "",
          "type": "address"
        }
      ],
      "stateMutability": "view",
      "type": "function",
      "constant": true
    },
    {
      "inputs": [],
      "name": "renounceOwnership",
      "outputs": [],
      "stateMutability": "nonpayable",
      "type": "function"
    },
    {
      "inputs": [],
      "name": "swapOwner",
      "outputs": [
        {
          "internalType": "address payable",
          "name": "",
          "type": "address"
        }
      ],
      "stateMutability": "view",
      "type": "function",
      "constant": true
    },
    {
      "inputs": [],
      "name": "token",
      "outputs": [
        {
          "internalType": "contract powerToken",
          "name": "",
          "type": "address"
        }
      ],
      "stateMutability": "view",
      "type": "function",
      "constant": true
    },
    {
      "inputs": [],
      "name": "tokenPrice",
      "outputs": [
        {
          "internalType": "uint256",
          "name": "",
          "type": "uint256"
        }
      ],
      "stateMutability": "view",
      "type": "function",
      "constant": true
    },
    {
      "inputs": [
        {
          "internalType": "address",
          "name": "newOwner",
          "type": "address"
        }
      ],
      "name": "transferOwnership",
      "outputs": [],
      "stateMutability": "nonpayable",
      "type": "function"
    },
    {
      "inputs": [
        {
          "internalType": "address",
          "name": "",
          "type": "address"
        }
      ],
      "name": "userBattery",
      "outputs": [
        {
          "internalType": "uint256",
          "name": "id",
          "type": "uint256"
        },
        {
          "internalType": "uint256",
          "name": "percent",
          "type": "uint256"
        },
        {
          "internalType": "enum swap.batLocation",
          "name": "location",
          "type": "uint8"
        }
      ],
      "stateMutability": "view",
      "type": "function",
      "constant": true
    },
    {
      "inputs": [
        {
          "internalType": "address",
          "name": "",
          "type": "address"
        }
      ],
      "name": "userStates",
      "outputs": [
        {
          "internalType": "enum swap.userState",
          "name": "",
          "type": "uint8"
        }
      ],
      "stateMutability": "view",
      "type": "function",
      "constant": true
    },
    {
      "stateMutability": "payable",
      "type": "receive",
      "payable": true
    },
    {
      "inputs": [],
      "name": "buyTokens",
      "outputs": [],
      "stateMutability": "payable",
      "type": "function",
      "payable": true
    },
    {
      "inputs": [
        {
          "internalType": "address",
          "name": "_user",
          "type": "address"
        }
      ],
      "name": "depositTokens",
      "outputs": [],
      "stateMutability": "nonpayable",
      "type": "function"
    },
    {
      "inputs": [
        {
          "internalType": "uint256",
          "name": "_batId",
          "type": "uint256"
        },
        {
          "internalType": "address",
          "name": "_user",
          "type": "address"
        }
      ],
      "name": "depositBattery",
      "outputs": [],
      "stateMutability": "nonpayable",
      "type": "function"
    },
    {
      "inputs": [
        {
          "internalType": "uint256",
          "name": "_batId",
          "type": "uint256"
        },
        {
          "internalType": "address",
          "name": "_user",
          "type": "address"
        }
      ],
      "name": "collectBattery",
      "outputs": [],
      "stateMutability": "nonpayable",
      "type": "function"
    },
    {
      "inputs": [
        {
          "internalType": "address",
          "name": "_user",
          "type": "address"
        }
      ],
      "name": "getBalance",
      "outputs": [
        {
          "internalType": "uint256",
          "name": "",
          "type": "uint256"
        }
      ],
      "stateMutability": "view",
      "type": "function",
      "constant": true
    },
    {
      "inputs": [],
      "name": "totalSupply",
      "outputs": [
        {
          "internalType": "uint256",
          "name": "",
          "type": "uint256"
        }
      ],
      "stateMutability": "view",
      "type": "function",
      "constant": true
    },
    {
      "inputs": [],
      "name": "approveContract",
      "outputs": [],
      "stateMutability": "nonpayable",
      "type": "function"
    },
    {
      "inputs": [],
      "name": "withdraw",
      "outputs": [],
      "stateMutability": "nonpayable",
      "type": "function"
    },
    {
      "inputs": [],
      "name": "transferTokenOwnership",
      "outputs": [],
      "stateMutability": "nonpayable",
      "type": "function"
    },
    {
      "inputs": [
        {
          "internalType": "address[]",
          "name": "_userAddresses",
          "type": "address[]"
        }
      ],
      "name": "init",
      "outputs": [],
      "stateMutability": "nonpayable",
      "type": "function"
    }
  ],
  "bytecode": "0x608060405260008060146101000a81548160ff021916908315150217905550600180556101906005556000600660006101000a81548160ff02191690831515021790555060405162002d8c38038062002d8c833981810160405281019062000068919062000352565b620000886200007c6200016260201b60201c565b6200016a60201b60201c565b620000986200022e60201b60201c565b33600360006101000a81548173ffffffffffffffffffffffffffffffffffffffff021916908373ffffffffffffffffffffffffffffffffffffffff16021790555030600460006101000a81548173ffffffffffffffffffffffffffffffffffffffff021916908373ffffffffffffffffffffffffffffffffffffffff16021790555080600260006101000a81548173ffffffffffffffffffffffffffffffffffffffff021916908373ffffffffffffffffffffffffffffffffffffffff1602179055505062000407565b600033905090565b60008060009054906101000a900473ffffffffffffffffffffffffffffffffffffffff169050816000806101000a81548173ffffffffffffffffffffffffffffffffffffffff021916908373ffffffffffffffffffffffffffffffffffffffff1602179055508173ffffffffffffffffffffffffffffffffffffffff168173ffffffffffffffffffffffffffffffffffffffff167f8be0079c531659141344cd1fd0a4f28419497f9722a3daafe3b4186f6b6457e060405160405180910390a35050565b6200023e6200016260201b60201c565b73ffffffffffffffffffffffffffffffffffffffff1662000264620002bf60201b60201c565b73ffffffffffffffffffffffffffffffffffffffff1614620002bd576040517f08c379a0000000000000000000000000000000000000000000000000000000008152600401620002b490620003e5565b60405180910390fd5b565b60008060009054906101000a900473ffffffffffffffffffffffffffffffffffffffff16905090565b600080fd5b600073ffffffffffffffffffffffffffffffffffffffff82169050919050565b60006200031a82620002ed565b9050919050565b6200032c816200030d565b81146200033857600080fd5b50565b6000815190506200034c8162000321565b92915050565b6000602082840312156200036b576200036a620002e8565b5b60006200037b848285016200033b565b91505092915050565b600082825260208201905092915050565b7f4f776e61626c653a2063616c6c6572206973206e6f7420746865206f776e6572600082015250565b6000620003cd60208362000384565b9150620003da8262000395565b602082019050919050565b600060208201905081810360008301526200040081620003be565b9050919050565b61297580620004176000396000f3fe6080604052600436106101235760003560e01c80637ff9b596116100a0578063d89239b011610064578063d89239b014610377578063f2fde38b146103a2578063f8b2cb4f146103cb578063fc0c546a14610408578063fd58835b146104335761012a565b80637ff9b596146102af5780638da5cb5b146102da578063b674ec9714610305578063c6044c4614610344578063d0febe4c1461036d5761012a565b80633ccfd60b116100e75780633ccfd60b1461022a5780634056675e1461024157806343d00d041461025857806356bccf911461026f578063715018a6146102985761012a565b80630ecc535f1461012f57806318160ddd1461016c57806325157400146101975780632a5f2485146101d65780633c4c9dd7146101ff5761012a565b3661012a57005b600080fd5b34801561013b57600080fd5b5061015660048036038101906101519190611ad5565b61045c565b6040516101639190611b79565b60405180910390f35b34801561017857600080fd5b5061018161047c565b60405161018e9190611bad565b60405180910390f35b3480156101a357600080fd5b506101be60048036038101906101b99190611bf4565b610514565b6040516101cd93929190611c69565b60405180910390f35b3480156101e257600080fd5b506101fd60048036038101906101f89190611ca0565b61054b565b005b34801561020b57600080fd5b5061021461083e565b6040516102219190611d01565b60405180910390f35b34801561023657600080fd5b5061023f610864565b005b34801561024d57600080fd5b50610256610a3a565b005b34801561026457600080fd5b5061026d610af3565b005b34801561027b57600080fd5b5061029660048036038101906102919190611ad5565b610b9e565b005b3480156102a457600080fd5b506102ad610e2e565b005b3480156102bb57600080fd5b506102c4610e42565b6040516102d19190611bad565b60405180910390f35b3480156102e657600080fd5b506102ef610e48565b6040516102fc9190611d2b565b60405180910390f35b34801561031157600080fd5b5061032c60048036038101906103279190611ad5565b610e71565b60405161033b93929190611c69565b60405180910390f35b34801561035057600080fd5b5061036b60048036038101906103669190611dab565b610ea8565b005b610375611179565b005b34801561038357600080fd5b5061038c611415565b6040516103999190611bad565b60405180910390f35b3480156103ae57600080fd5b506103c960048036038101906103c49190611ad5565b61141b565b005b3480156103d757600080fd5b506103f260048036038101906103ed9190611ad5565b61149e565b6040516103ff9190611bad565b60405180910390f35b34801561041457600080fd5b5061041d611543565b60405161042a9190611e57565b60405180910390f35b34801561043f57600080fd5b5061045a60048036038101906104559190611ca0565b611569565b005b60076020528060005260406000206000915054906101000a900460ff1681565b6000600260009054906101000a900473ffffffffffffffffffffffffffffffffffffffff1673ffffffffffffffffffffffffffffffffffffffff166318160ddd6040518163ffffffff1660e01b8152600401602060405180830381865afa1580156104eb573d6000803e3d6000fd5b505050506040513d601f19601f8201168201806040525081019061050f9190611e87565b905090565b60086020528060005260406000206000915090508060000154908060010154908060020160009054906101000a900460ff16905083565b600660009054906101000a900460ff161561059b576040517f08c379a000000000000000000000000000000000000000000000000000000000815260040161059290611f11565b60405180910390fd5b6001600660006101000a81548160ff02191690831515021790555081600960008373ffffffffffffffffffffffffffffffffffffffff1673ffffffffffffffffffffffffffffffffffffffff168152602001908152602001600020600001541461063a576040517f08c379a000000000000000000000000000000000000000000000000000000000815260040161063190611fa3565b60405180910390fd5b6000600181111561064e5761064d611b02565b5b6008600084815260200190815260200160002060020160009054906101000a900460ff16600181111561068457610683611b02565b5b146106c4576040517f08c379a00000000000000000000000000000000000000000000000000000000081526004016106bb9061200f565b60405180910390fd5b60016008600084815260200190815260200160002060020160006101000a81548160ff021916908360018111156106fe576106fd611b02565b5b02179055506001600760008373ffffffffffffffffffffffffffffffffffffffff1673ffffffffffffffffffffffffffffffffffffffff16815260200190815260200160002060006101000a81548160ff0219169083600281111561076657610765611b02565b5b0217905550600960008273ffffffffffffffffffffffffffffffffffffffff1673ffffffffffffffffffffffffffffffffffffffff16815260200190815260200160002060008082016000905560018201600090556002820160006101000a81549060ff021916905550508073ffffffffffffffffffffffffffffffffffffffff167f18184db950457e5be3081440f13ddfc73c469b6d849a0addf29467e3c3a3eaa5836040516108179190611bad565b60405180910390a26000600660006101000a81548160ff0219169083151502179055505050565b600360009054906101000a900473ffffffffffffffffffffffffffffffffffffffff1681565b600360009054906101000a900473ffffffffffffffffffffffffffffffffffffffff1673ffffffffffffffffffffffffffffffffffffffff163373ffffffffffffffffffffffffffffffffffffffff16146108f4576040517f08c379a00000000000000000000000000000000000000000000000000000000081526004016108eb906120a1565b60405180910390fd5b60004790506000811161093c576040517f08c379a00000000000000000000000000000000000000000000000000000000081526004016109339061210d565b60405180910390fd5b60003373ffffffffffffffffffffffffffffffffffffffff16826040516109629061215e565b60006040518083038185875af1925050503d806000811461099f576040519150601f19603f3d011682016040523d82523d6000602084013e6109a4565b606091505b50509050806109e8576040517f08c379a00000000000000000000000000000000000000000000000000000000081526004016109df906121bf565b60405180910390fd5b3373ffffffffffffffffffffffffffffffffffffffff167f884edad9ce6fa2440d8a54cc123490eb96d2768479d49ff9c7366125a942436483604051610a2e9190611bad565b60405180910390a25050565b610a42611923565b600260009054906101000a900473ffffffffffffffffffffffffffffffffffffffff1673ffffffffffffffffffffffffffffffffffffffff1663f2fde38b600460009054906101000a900473ffffffffffffffffffffffffffffffffffffffff166040518263ffffffff1660e01b8152600401610abf9190612200565b600060405180830381600087803b158015610ad957600080fd5b505af1158015610aed573d6000803e3d6000fd5b50505050565b600260009054906101000a900473ffffffffffffffffffffffffffffffffffffffff1673ffffffffffffffffffffffffffffffffffffffff1663095ea7b330610b3b3361149e565b6040518363ffffffff1660e01b8152600401610b5892919061221b565b6020604051808303816000875af1158015610b77573d6000803e3d6000fd5b505050506040513d601f19601f82011682018060405250810190610b9b919061227c565b50565b600660009054906101000a900460ff1615610bee576040517f08c379a0000000000000000000000000000000000000000000000000000000008152600401610be590611f11565b60405180910390fd5b6001600660006101000a81548160ff0219169083151502179055506064610c148261149e565b1015610c55576040517f08c379a0000000000000000000000000000000000000000000000000000000008152600401610c4c906122f5565b60405180910390fd5b600260009054906101000a900473ffffffffffffffffffffffffffffffffffffffff1673ffffffffffffffffffffffffffffffffffffffff166323b872dd82600460009054906101000a900473ffffffffffffffffffffffffffffffffffffffff1660646040518463ffffffff1660e01b8152600401610cd793929190612350565b6020604051808303816000875af1158015610cf6573d6000803e3d6000fd5b505050506040513d601f19601f82011682018060405250810190610d1a919061227c565b610d59576040517f08c379a0000000000000000000000000000000000000000000000000000000008152600401610d50906123d3565b60405180910390fd5b6000600760008373ffffffffffffffffffffffffffffffffffffffff1673ffffffffffffffffffffffffffffffffffffffff16815260200190815260200160002060006101000a81548160ff02191690836002811115610dbc57610dbb611b02565b5b02179055508073ffffffffffffffffffffffffffffffffffffffff167fe1fffcc4923d04b559f4d29a8bfc6cda04eb5b0d3c460751c2402c5c5cc9109c6064604051610e0891906123f3565b60405180910390a26000600660006101000a81548160ff02191690831515021790555050565b610e36611923565b610e4060006119a1565b565b60055481565b60008060009054906101000a900473ffffffffffffffffffffffffffffffffffffffff16905090565b60096020528060005260406000206000915090508060000154908060010154908060020160009054906101000a900460ff16905083565b610eb0611923565b600060149054906101000a900460ff1615610f00576040517f08c379a0000000000000000000000000000000000000000000000000000000008152600401610ef79061245a565b60405180910390fd5b6001600060146101000a81548160ff02191690831515021790555060005b600c811015610fde576040518060600160405280600154815260200160648152602001600180811115610f5457610f53611b02565b5b815250600860006001548152602001908152602001600020600082015181600001556020820151816001015560408201518160020160006101000a81548160ff02191690836001811115610fab57610faa611b02565b5b021790555090505060016000815480929190610fc6906124a9565b91905055508080610fd6906124a9565b915050610f1e565b5060005b828290508110156111745760405180606001604052806001548152602001601481526020016000600181111561101b5761101a611b02565b5b815250600860006001548152602001908152602001600020600082015181600001556020820151816001015560408201518160020160006101000a81548160ff0219169083600181111561107257611071611b02565b5b0217905550905050600860006001548152602001908152602001600020600960008585858181106110a6576110a56124f1565b5b90506020020160208101906110bb9190611ad5565b73ffffffffffffffffffffffffffffffffffffffff1673ffffffffffffffffffffffffffffffffffffffff16815260200190815260200160002060008201548160000155600182015481600101556002820160009054906101000a900460ff168160020160006101000a81548160ff0219169083600181111561114157611140611b02565b5b02179055509050506001600081548092919061115c906124a9565b9190505550808061116c906124a9565b915050610fe2565b505050565b600660009054906101000a900460ff16156111c9576040517f08c379a00000000000000000000000000000000000000000000000000000000081526004016111c090611f11565b60405180910390fd5b6001600660006101000a81548160ff02191690831515021790555060646005546111f39190612520565b3411611234576040517f08c379a000000000000000000000000000000000000000000000000000000000815260040161122b906125fa565b60405180910390fd5b3373ffffffffffffffffffffffffffffffffffffffff1631341061128d576040517f08c379a00000000000000000000000000000000000000000000000000000000081526004016112849061268c565b60405180910390fd5b60003490506000600554826112a291906126db565b90506000600554826112b49190612520565b9050600081846112c4919061270c565b9050600260009054906101000a900473ffffffffffffffffffffffffffffffffffffffff1673ffffffffffffffffffffffffffffffffffffffff166340c10f1933856040518363ffffffff1660e01b815260040161132392919061221b565b600060405180830381600087803b15801561133d57600080fd5b505af1158015611351573d6000803e3d6000fd5b505050503373ffffffffffffffffffffffffffffffffffffffff167f0f6798a560793a54c3bcfe86a93cde1e73087d944c0ea20544137d41213968858460405161139b9190611bad565b60405180910390a260008111156113f4573373ffffffffffffffffffffffffffffffffffffffff166108fc829081150290604051600060405180830381858888f193505050501580156113f2573d6000803e3d6000fd5b505b505050506000600660006101000a81548160ff021916908315150217905550565b60015481565b611423611923565b600073ffffffffffffffffffffffffffffffffffffffff168173ffffffffffffffffffffffffffffffffffffffff1603611492576040517f08c379a0000000000000000000000000000000000000000000000000000000008152600401611489906127b2565b60405180910390fd5b61149b816119a1565b50565b6000600260009054906101000a900473ffffffffffffffffffffffffffffffffffffffff1673ffffffffffffffffffffffffffffffffffffffff166370a08231836040518263ffffffff1660e01b81526004016114fb9190611d2b565b602060405180830381865afa158015611518573d6000803e3d6000fd5b505050506040513d601f19601f8201168201806040525081019061153c9190611e87565b9050919050565b600260009054906101000a900473ffffffffffffffffffffffffffffffffffffffff1681565b600660009054906101000a900460ff16156115b9576040517f08c379a00000000000000000000000000000000000000000000000000000000081526004016115b090611f11565b60405180910390fd5b6001600660006101000a81548160ff0219169083151502179055506001808111156115e7576115e6611b02565b5b6008600084815260200190815260200160002060020160009054906101000a900460ff16600181111561161d5761161c611b02565b5b1461165d576040517f08c379a00000000000000000000000000000000000000000000000000000000081526004016116549061281e565b60405180910390fd5b6050600860008481526020019081526020016000206001015410156116b7576040517f08c379a00000000000000000000000000000000000000000000000000000000081526004016116ae9061288a565b60405180910390fd5b60006008600084815260200190815260200160002060020160006101000a81548160ff021916908360018111156116f1576116f0611b02565b5b021790555060086000838152602001908152602001600020600960008373ffffffffffffffffffffffffffffffffffffffff1673ffffffffffffffffffffffffffffffffffffffff16815260200190815260200160002060008201548160000155600182015481600101556002820160009054906101000a900460ff168160020160006101000a81548160ff0219169083600181111561179457611793611b02565b5b02179055509050506002600760008373ffffffffffffffffffffffffffffffffffffffff1673ffffffffffffffffffffffffffffffffffffffff16815260200190815260200160002060006101000a81548160ff021916908360028111156117ff576117fe611b02565b5b0217905550600260009054906101000a900473ffffffffffffffffffffffffffffffffffffffff1673ffffffffffffffffffffffffffffffffffffffff16639dc29fac600460009054906101000a900473ffffffffffffffffffffffffffffffffffffffff1660646040518363ffffffff1660e01b81526004016118849291906128aa565b600060405180830381600087803b15801561189e57600080fd5b505af11580156118b2573d6000803e3d6000fd5b505050508073ffffffffffffffffffffffffffffffffffffffff167fca8e808aa6f6e9e1f098cc0221cabeda0007151124f8bf3979e727492efca0f6836040516118fc9190611bad565b60405180910390a26000600660006101000a81548160ff0219169083151502179055505050565b61192b611a65565b73ffffffffffffffffffffffffffffffffffffffff16611949610e48565b73ffffffffffffffffffffffffffffffffffffffff161461199f576040517f08c379a00000000000000000000000000000000000000000000000000000000081526004016119969061291f565b60405180910390fd5b565b60008060009054906101000a900473ffffffffffffffffffffffffffffffffffffffff169050816000806101000a81548173ffffffffffffffffffffffffffffffffffffffff021916908373ffffffffffffffffffffffffffffffffffffffff1602179055508173ffffffffffffffffffffffffffffffffffffffff168173ffffffffffffffffffffffffffffffffffffffff167f8be0079c531659141344cd1fd0a4f28419497f9722a3daafe3b4186f6b6457e060405160405180910390a35050565b600033905090565b600080fd5b600080fd5b600073ffffffffffffffffffffffffffffffffffffffff82169050919050565b6000611aa282611a77565b9050919050565b611ab281611a97565b8114611abd57600080fd5b50565b600081359050611acf81611aa9565b92915050565b600060208284031215611aeb57611aea611a6d565b5b6000611af984828501611ac0565b91505092915050565b7f4e487b7100000000000000000000000000000000000000000000000000000000600052602160045260246000fd5b60038110611b4257611b41611b02565b5b50565b6000819050611b5382611b31565b919050565b6000611b6382611b45565b9050919050565b611b7381611b58565b82525050565b6000602082019050611b8e6000830184611b6a565b92915050565b6000819050919050565b611ba781611b94565b82525050565b6000602082019050611bc26000830184611b9e565b92915050565b611bd181611b94565b8114611bdc57600080fd5b50565b600081359050611bee81611bc8565b92915050565b600060208284031215611c0a57611c09611a6d565b5b6000611c1884828501611bdf565b91505092915050565b60028110611c3257611c31611b02565b5b50565b6000819050611c4382611c21565b919050565b6000611c5382611c35565b9050919050565b611c6381611c48565b82525050565b6000606082019050611c7e6000830186611b9e565b611c8b6020830185611b9e565b611c986040830184611c5a565b949350505050565b60008060408385031215611cb757611cb6611a6d565b5b6000611cc585828601611bdf565b9250506020611cd685828601611ac0565b9150509250929050565b6000611ceb82611a77565b9050919050565b611cfb81611ce0565b82525050565b6000602082019050611d166000830184611cf2565b92915050565b611d2581611a97565b82525050565b6000602082019050611d406000830184611d1c565b92915050565b600080fd5b600080fd5b600080fd5b60008083601f840112611d6b57611d6a611d46565b5b8235905067ffffffffffffffff811115611d8857611d87611d4b565b5b602083019150836020820283011115611da457611da3611d50565b5b9250929050565b60008060208385031215611dc257611dc1611a6d565b5b600083013567ffffffffffffffff811115611de057611ddf611a72565b5b611dec85828601611d55565b92509250509250929050565b6000819050919050565b6000611e1d611e18611e1384611a77565b611df8565b611a77565b9050919050565b6000611e2f82611e02565b9050919050565b6000611e4182611e24565b9050919050565b611e5181611e36565b82525050565b6000602082019050611e6c6000830184611e48565b92915050565b600081519050611e8181611bc8565b92915050565b600060208284031215611e9d57611e9c611a6d565b5b6000611eab84828501611e72565b91505092915050565b600082825260208201905092915050565b7f5265656e7472616e637920677561726400000000000000000000000000000000600082015250565b6000611efb601083611eb4565b9150611f0682611ec5565b602082019050919050565b60006020820190508181036000830152611f2a81611eee565b9050919050565b7f42617474657279206973206e6f7420696e2075736572277320706f737365737360008201527f696f6e0000000000000000000000000000000000000000000000000000000000602082015250565b6000611f8d602383611eb4565b9150611f9882611f31565b604082019050919050565b60006020820190508181036000830152611fbc81611f80565b9050919050565b7f42617474657279206973206e6f7420696e20612076656869636c650000000000600082015250565b6000611ff9601b83611eb4565b915061200482611fc3565b602082019050919050565b6000602082019050818103600083015261202881611fec565b9050919050565b7f4f6e6c7920746865206f776e65722063616e2063616c6c20746869732066756e60008201527f6374696f6e000000000000000000000000000000000000000000000000000000602082015250565b600061208b602583611eb4565b91506120968261202f565b604082019050919050565b600060208201905081810360008301526120ba8161207e565b9050919050565b7f4e6f204574686572206c65667420746f20776974686472617700000000000000600082015250565b60006120f7601983611eb4565b9150612102826120c1565b602082019050919050565b60006020820190508181036000830152612126816120ea565b9050919050565b600081905092915050565b50565b600061214860008361212d565b915061215382612138565b600082019050919050565b60006121698261213b565b9150819050919050565b7f4661696c656420746f2073656e64204574686572000000000000000000000000600082015250565b60006121a9601483611eb4565b91506121b482612173565b602082019050919050565b600060208201905081810360008301526121d88161219c565b9050919050565b60006121ea82611e24565b9050919050565b6121fa816121df565b82525050565b600060208201905061221560008301846121f1565b92915050565b60006040820190506122306000830185611d1c565b61223d6020830184611b9e565b9392505050565b60008115159050919050565b61225981612244565b811461226457600080fd5b50565b60008151905061227681612250565b92915050565b60006020828403121561229257612291611a6d565b5b60006122a084828501612267565b91505092915050565b7f496e73756666696369656e7420746f6b656e2062616c616e6365000000000000600082015250565b60006122df601a83611eb4565b91506122ea826122a9565b602082019050919050565b6000602082019050818103600083015261230e816122d2565b9050919050565b6000819050919050565b600061233a61233561233084612315565b611df8565b611b94565b9050919050565b61234a8161231f565b82525050565b60006060820190506123656000830186611d1c565b61237260208301856121f1565b61237f6040830184612341565b949350505050565b7f546f6b656e207472616e73666572206661696c65640000000000000000000000600082015250565b60006123bd601583611eb4565b91506123c882612387565b602082019050919050565b600060208201905081810360008301526123ec816123b0565b9050919050565b60006020820190506124086000830184612341565b92915050565b7f416c726561647920696e697469616c697a656400000000000000000000000000600082015250565b6000612444601383611eb4565b915061244f8261240e565b602082019050919050565b6000602082019050818103600083015261247381612437565b9050919050565b7f4e487b7100000000000000000000000000000000000000000000000000000000600052601160045260246000fd5b60006124b482611b94565b91507fffffffffffffffffffffffffffffffffffffffffffffffffffffffffffffffff82036124e6576124e561247a565b5b600182019050919050565b7f4e487b7100000000000000000000000000000000000000000000000000000000600052603260045260246000fd5b600061252b82611b94565b915061253683611b94565b925082820261254481611b94565b9150828204841483151761255b5761255a61247a565b5b5092915050565b7f41206d696e696d756d206f66203430303030207765692069732072657175697260008201527f656420746f206275792061206d696e696d756d206f662031303020746f6b656e60208201527f7300000000000000000000000000000000000000000000000000000000000000604082015250565b60006125e4604183611eb4565b91506125ef82612562565b606082019050919050565b60006020820190508181036000830152612613816125d7565b9050919050565b7f496e73756666696369656e74204554482062616c616e636520746f206275792060008201527f746f6b656e730000000000000000000000000000000000000000000000000000602082015250565b6000612676602683611eb4565b91506126818261261a565b604082019050919050565b600060208201905081810360008301526126a581612669565b9050919050565b7f4e487b7100000000000000000000000000000000000000000000000000000000600052601260045260246000fd5b60006126e682611b94565b91506126f183611b94565b925082612701576127006126ac565b5b828204905092915050565b600061271782611b94565b915061272283611b94565b925082820390508181111561273a5761273961247a565b5b92915050565b7f4f776e61626c653a206e6577206f776e657220697320746865207a65726f206160008201527f6464726573730000000000000000000000000000000000000000000000000000602082015250565b600061279c602683611eb4565b91506127a782612740565b604082019050919050565b600060208201905081810360008301526127cb8161278f565b9050919050565b7f42617474657279206973206e6f74206174207468652073746174696f6e000000600082015250565b6000612808601d83611eb4565b9150612813826127d2565b602082019050919050565b60006020820190508181036000830152612837816127fb565b9050919050565b7f42617474657279206973206e6f74206368617267656420656e6f756768000000600082015250565b6000612874601d83611eb4565b915061287f8261283e565b602082019050919050565b600060208201905081810360008301526128a381612867565b9050919050565b60006040820190506128bf60008301856121f1565b6128cc6020830184612341565b9392505050565b7f4f776e61626c653a2063616c6c6572206973206e6f7420746865206f776e6572600082015250565b6000612909602083611eb4565b9150612914826128d3565b602082019050919050565b60006020820190508181036000830152612938816128fc565b905091905056fea26469706673582212209e72417cd908648150e1bf7915935e41951ef069f8cab45f5d016fa3a6ea378864736f6c63430008130033",
  "immutableReferences": {},
  "source": "// SPDX-License-Identifier: MIT\npragma solidity 0.8.19;\n\nimport \"./powerToken.sol\";\nimport \"@openzeppelin/contracts/access/Ownable.sol\";\n/*Function Paramter Variables: _variableName\n*Everything else in camelCase: variableName,  functionName, contractName\n*Two blank lines before contracts\n*One blank line before functions\n*/\n\n//Use web3.js functions to interact with the contract: getAccount, getBalane, currentProvider, getBlock, getTransaction\n\n\n/*Order Layout for sol file:\n*SPDX-License-Identifier\n*pragma solidity\n*import statements\n*interfaces\n*libraries\n*contracts\n*/\n\n//Battery structure to maaintain the state of the battery: id, percent, lastUser, location (vehicle, batterystation)\n\ncontract swap is Ownable {\n  /*Order Layout for contract:\n  *Type declarations\n  *State variables\n  *Events\n  *Errors\n  *Modifiers\n  *Methods\n  */\n\n  bool private initialized = false; //Only used for init\n  uint256 public nextBatteryId = 1; //Only used for init\n  powerToken public token;\n  address payable public swapOwner;\n  address payable contractAddress;\n  uint256 public tokenPrice = 400; //400 wei per token\n  bool internal reentrancyLock = false; //Reentrancy guard\n\n  //Enum for battery location\n  enum batLocation {\n    VEHICLE,\n    STATION\n  }\n\n  //Enum for user state\n  enum userState {\n    SPENT,\n    DEPOSITED,\n    COLLECTED\n  }\n\n  mapping(address => userState) public userStates; //Mapping to track user state during the swap process\n\n  //Battery structure to maintain the state of the battery\n  struct battery {\n    uint256 id;\n    uint256 percent;\n    //address lastUser;\n    batLocation location;\n  }\n\n  mapping (uint256 => battery) public batteryMap; //Mapping ID to Battery\n\n  mapping (address => battery) public userBattery; //Mapping user to battery\n\n  //Event to log the minting of tokens\n  event Mint(address indexed to, uint256 value);\n\n  //Event to log deposit of tokens\n  event Deposit(address indexed from, uint256 value);\n\n  //Event to log the deposit of battery\n  event BatteryDeposit(address indexed from, uint256 batId);\n\n  //Event to log the collection of battery\n  event BatteryCollect(address indexed from, uint256 batId);\n\n  //Event to log withdrawal of ETH by owner\n  event Withdraw(address indexed owner, uint256 value);\n\n  //Modifier ownerOnly to restrict access to the owner\n  modifier ownerOnly() {\n    require(msg.sender == swapOwner, \"Only the owner can call this function\");\n    _;\n  }\n\n  //Constructor to deploy the contract with the token's address\n  constructor(address _tokenAddress) payable onlyOwner(){\n    swapOwner = payable(msg.sender); //Set the owner of the contract to the EOA that deployed the contract\n    contractAddress = payable(address(this));\n    token = powerToken(_tokenAddress); //Deploy the contract with the token's address\n  }\n\n  //Modifier for reentrancy guard\n  modifier reentrancyGuard() {\n    require(!reentrancyLock, \"Reentrancy guard\");\n    reentrancyLock = true;\n    _;\n    reentrancyLock = false;\n  }\n\n  //Receive function to accept ether\n  receive() external payable {\n    //Emit an event to log the amount of ether received\n  }\n\n  //Function to buy tokens\n  function buyTokens() public payable reentrancyGuard() {\n    //Ensure user can buy at least one token\n    require(msg.value > tokenPrice * 100, \"A minimum of 40000 wei is required to buy a minimum of 100 tokens\");\n    //Ensure user has enough balance to buy tokens\n    require(msg.value < msg.sender.balance, \"Insufficient ETH balance to buy tokens\");\n    uint256 amount = msg.value;\n    uint256 tokens = amount / tokenPrice; //Calculate the number of tokens to transfer \n    uint256 cost = tokens * tokenPrice; //Calculate the cost of the tokens\n    uint256 refund = amount - cost; //Calculate the refund amount\n    token.mint(msg.sender, tokens); //Transfer tokens to user\n    emit Mint(msg.sender, tokens); //Emit an event to log the minting of tokens\n\n    //Refund the user if they overpaid\n    if (refund > 0) {\n      payable(msg.sender).transfer(refund);\n    }\n  }\n\n  // Users deposit tokens to initiate the swap process\n  function depositTokens(address _user) public reentrancyGuard(){\n    require(getBalance(_user) >= 100, \"Insufficient token balance\");\n    require(token.transferFrom(_user, contractAddress, 100), \"Token transfer failed\");\n    //require(token.transfer(contractAddress, 100), \"Token transfer failed\"); //Transfer tokens to contract\n    userStates[_user] = userState.SPENT; //Update user state\n    emit Deposit(_user, 100); //Emit an event to log the deposit of tokens\n  }\n\n  //Function to deposit the battery\n  function depositBattery(uint256 _batId, address _user) public reentrancyGuard(){\n    //Ensure battery ID belongs to the user\n    require(userBattery[_user].id == _batId, \"Battery is not in user's possession\");\n    //Ensure battery is in the vehicle\n    require(batteryMap[_batId].location == batLocation.VEHICLE, \"Battery is not in a vehicle\");\n    //Modify the battery location to the battery station\n    batteryMap[_batId].location = batLocation.STATION;\n    //Update the user state\n    userStates[_user] = userState.DEPOSITED;\n    //Remove the battery from the user\n    delete userBattery[_user];\n    //Emit an event to log the deposit of the battery\n    emit BatteryDeposit(_user, _batId);\n  }\n\n  // Once verified, the user can collect a charged battery\n  function collectBattery(uint256 _batId, address _user) public reentrancyGuard(){\n    //Ensure battery ID belongs to the station\n    require(batteryMap[_batId].location == batLocation.STATION, \"Battery is not at the station\");\n    //Ensure battery is charged\n    require(batteryMap[_batId].percent >=80, \"Battery is not charged enough\");\n    //Modify the battery location to the vehicle\n    batteryMap[_batId].location = batLocation.VEHICLE;\n    //Modify the last user to the calling user\n    userBattery[_user] = batteryMap[_batId];\n    //Update the user state\n    userStates[_user] = userState.COLLECTED;\n    //Burn tokens from contract\n    token.burn(contractAddress, 100);\n    //Emit an event to log the collection of the battery\n    emit BatteryCollect(_user, _batId);\n  }\n  \n\n  //Get Balance of the calling user\n  function getBalance(address _user) public view returns (uint256) {\n    return token.balanceOf(_user);\n  }\n\n  //Returns total Supply\n  function totalSupply() public view returns (uint256) {\n    return token.totalSupply();\n  }\n\n  //Approve the contract to spend tokens on user's behalf\n  function approveContract() public {\n    token.approve(address(this), getBalance(msg.sender));\n  }\n\n  //Function to let contract owner to withdraw ether\n  function withdraw() public ownerOnly {\n    uint amount = address(this).balance;\n    require(amount > 0, \"No Ether left to withdraw\");\n\n    (bool success, ) = msg.sender.call{value: amount}(\"\");\n    require(success, \"Failed to send Ether\");\n    emit Withdraw(msg.sender, amount); //Emit an event to log the withdrawal of ether\n  }\n\n  //Function to pass ownership of the token to the contract\n  //Add this in test\n  function transferTokenOwnership() public onlyOwner {\n    token.transferOwnership(contractAddress);\n  }\n\n  // Function to initialize the contract\n    function init(address[] calldata _userAddresses) external onlyOwner {\n        require(!initialized, \"Already initialized\");\n        initialized = true;\n\n        // Create 12 batteries belonging to the station\n        for (uint i = 0; i < 12; i++) {\n            batteryMap[nextBatteryId] = battery(nextBatteryId, 100, batLocation.STATION); // Fully charged\n            nextBatteryId++;\n        }\n\n        // Create three batteries belonging to users\n        for (uint i = 0; i < _userAddresses.length; i++) {\n            batteryMap[nextBatteryId] = battery(nextBatteryId, 20, batLocation.VEHICLE); // Assuming 20% charge\n            userBattery[_userAddresses[i]] = batteryMap[nextBatteryId];\n            nextBatteryId++;\n        }\n    }\n}\n",
  "sourcePath": "/Users/Manan/MDX/Blockchain2/battery-swap/contracts/swap.sol",
  "compiler": {
    "name": "solc",
    "version": "0.8.19+commit.7dd6d404.Emscripten.clang"
  },
  "schemaVersion": "3.4.16",
  "updatedAt": "2024-04-13T15:58:18.297Z",
  "networkType": "ethereum",
  "devdoc": {
    "kind": "dev",
    "methods": {
      "owner()": {
        "details": "Returns the address of the current owner."
      },
      "renounceOwnership()": {
        "details": "Leaves the contract without owner. It will not be possible to call `onlyOwner` functions. Can only be called by the current owner. NOTE: Renouncing ownership will leave the contract without an owner, thereby disabling any functionality that is only available to the owner."
      },
      "transferOwnership(address)": {
        "details": "Transfers ownership of the contract to a new account (`newOwner`). Can only be called by the current owner."
      }
    },
    "version": 1
  },
  "userdoc": {
    "kind": "user",
    "methods": {},
    "version": 1
  }
}