{
  "contractName": "swap",
  "abi": [
    {
      "inputs": [
        {
          "internalType": "address",
          "name": "_tokenAddress",
          "type": "address"
        }
      ],
      "stateMutability": "payable",
      "type": "constructor"
    },
    {
      "anonymous": false,
      "inputs": [
        {
          "indexed": true,
          "internalType": "address",
          "name": "from",
          "type": "address"
        },
        {
          "indexed": false,
          "internalType": "uint256",
          "name": "batId",
          "type": "uint256"
        }
      ],
      "name": "BatteryCollect",
      "type": "event"
    },
    {
      "anonymous": false,
      "inputs": [
        {
          "indexed": true,
          "internalType": "address",
          "name": "from",
          "type": "address"
        },
        {
          "indexed": false,
          "internalType": "uint256",
          "name": "batId",
          "type": "uint256"
        }
      ],
      "name": "BatteryDeposit",
      "type": "event"
    },
    {
      "anonymous": false,
      "inputs": [
        {
          "indexed": true,
          "internalType": "address",
          "name": "from",
          "type": "address"
        },
        {
          "indexed": false,
          "internalType": "uint256",
          "name": "value",
          "type": "uint256"
        }
      ],
      "name": "Deposit",
      "type": "event"
    },
    {
      "anonymous": false,
      "inputs": [
        {
          "indexed": true,
          "internalType": "address",
          "name": "to",
          "type": "address"
        },
        {
          "indexed": false,
          "internalType": "uint256",
          "name": "value",
          "type": "uint256"
        }
      ],
      "name": "Mint",
      "type": "event"
    },
    {
      "anonymous": false,
      "inputs": [
        {
          "indexed": true,
          "internalType": "address",
          "name": "previousOwner",
          "type": "address"
        },
        {
          "indexed": true,
          "internalType": "address",
          "name": "newOwner",
          "type": "address"
        }
      ],
      "name": "OwnershipTransferred",
      "type": "event"
    },
    {
      "anonymous": false,
      "inputs": [
        {
          "indexed": true,
          "internalType": "address",
          "name": "owner",
          "type": "address"
        },
        {
          "indexed": false,
          "internalType": "uint256",
          "name": "value",
          "type": "uint256"
        }
      ],
      "name": "Withdraw",
      "type": "event"
    },
    {
      "inputs": [
        {
          "internalType": "uint256",
          "name": "",
          "type": "uint256"
        }
      ],
      "name": "batteryMap",
      "outputs": [
        {
          "internalType": "uint256",
          "name": "id",
          "type": "uint256"
        },
        {
          "internalType": "uint256",
          "name": "percent",
          "type": "uint256"
        },
        {
          "internalType": "enum swap.batLocation",
          "name": "location",
          "type": "uint8"
        }
      ],
      "stateMutability": "view",
      "type": "function"
    },
    {
      "inputs": [],
      "name": "nextBatteryId",
      "outputs": [
        {
          "internalType": "uint256",
          "name": "",
          "type": "uint256"
        }
      ],
      "stateMutability": "view",
      "type": "function"
    },
    {
      "inputs": [],
      "name": "owner",
      "outputs": [
        {
          "internalType": "address",
          "name": "",
          "type": "address"
        }
      ],
      "stateMutability": "view",
      "type": "function"
    },
    {
      "inputs": [],
      "name": "renounceOwnership",
      "outputs": [],
      "stateMutability": "nonpayable",
      "type": "function"
    },
    {
      "inputs": [],
      "name": "swapOwner",
      "outputs": [
        {
          "internalType": "address payable",
          "name": "",
          "type": "address"
        }
      ],
      "stateMutability": "view",
      "type": "function"
    },
    {
      "inputs": [],
      "name": "token",
      "outputs": [
        {
          "internalType": "contract powerToken",
          "name": "",
          "type": "address"
        }
      ],
      "stateMutability": "view",
      "type": "function"
    },
    {
      "inputs": [],
      "name": "tokenPrice",
      "outputs": [
        {
          "internalType": "uint256",
          "name": "",
          "type": "uint256"
        }
      ],
      "stateMutability": "view",
      "type": "function"
    },
    {
      "inputs": [
        {
          "internalType": "address",
          "name": "newOwner",
          "type": "address"
        }
      ],
      "name": "transferOwnership",
      "outputs": [],
      "stateMutability": "nonpayable",
      "type": "function"
    },
    {
      "inputs": [
        {
          "internalType": "address",
          "name": "",
          "type": "address"
        }
      ],
      "name": "userBattery",
      "outputs": [
        {
          "internalType": "uint256",
          "name": "id",
          "type": "uint256"
        },
        {
          "internalType": "uint256",
          "name": "percent",
          "type": "uint256"
        },
        {
          "internalType": "enum swap.batLocation",
          "name": "location",
          "type": "uint8"
        }
      ],
      "stateMutability": "view",
      "type": "function"
    },
    {
      "inputs": [
        {
          "internalType": "address",
          "name": "",
          "type": "address"
        }
      ],
      "name": "userStates",
      "outputs": [
        {
          "internalType": "enum swap.userState",
          "name": "",
          "type": "uint8"
        }
      ],
      "stateMutability": "view",
      "type": "function"
    },
    {
      "stateMutability": "payable",
      "type": "receive"
    },
    {
      "inputs": [],
      "name": "buyTokens",
      "outputs": [],
      "stateMutability": "payable",
      "type": "function"
    },
    {
      "inputs": [
        {
          "internalType": "address",
          "name": "_user",
          "type": "address"
        }
      ],
      "name": "depositTokens",
      "outputs": [],
      "stateMutability": "nonpayable",
      "type": "function"
    },
    {
      "inputs": [
        {
          "internalType": "uint256",
          "name": "_batId",
          "type": "uint256"
        },
        {
          "internalType": "address",
          "name": "_user",
          "type": "address"
        }
      ],
      "name": "depositBattery",
      "outputs": [],
      "stateMutability": "nonpayable",
      "type": "function"
    },
    {
      "inputs": [
        {
          "internalType": "uint256",
          "name": "_batId",
          "type": "uint256"
        },
        {
          "internalType": "address",
          "name": "_user",
          "type": "address"
        }
      ],
      "name": "collectBattery",
      "outputs": [],
      "stateMutability": "nonpayable",
      "type": "function"
    },
    {
      "inputs": [
        {
          "internalType": "address",
          "name": "_user",
          "type": "address"
        }
      ],
      "name": "getBalance",
      "outputs": [
        {
          "internalType": "uint256",
          "name": "",
          "type": "uint256"
        }
      ],
      "stateMutability": "view",
      "type": "function"
    },
    {
      "inputs": [],
      "name": "totalSupply",
      "outputs": [
        {
          "internalType": "uint256",
          "name": "",
          "type": "uint256"
        }
      ],
      "stateMutability": "view",
      "type": "function"
    },
    {
      "inputs": [],
      "name": "withdraw",
      "outputs": [],
      "stateMutability": "nonpayable",
      "type": "function"
    },
    {
      "inputs": [
        {
          "internalType": "address[]",
          "name": "_userAddresses",
          "type": "address[]"
        }
      ],
      "name": "init",
      "outputs": [],
      "stateMutability": "nonpayable",
      "type": "function"
    }
  ],
  "bytecode": "0x608060405260008060146101000a81548160ff021916908315150217905550600180556101906005556000600660006101000a81548160ff02191690831515021790555060405162002c4f38038062002c4f833981810160405281019062000068919062000352565b620000886200007c6200016260201b60201c565b6200016a60201b60201c565b620000986200022e60201b60201c565b33600360006101000a81548173ffffffffffffffffffffffffffffffffffffffff021916908373ffffffffffffffffffffffffffffffffffffffff16021790555030600460006101000a81548173ffffffffffffffffffffffffffffffffffffffff021916908373ffffffffffffffffffffffffffffffffffffffff16021790555080600260006101000a81548173ffffffffffffffffffffffffffffffffffffffff021916908373ffffffffffffffffffffffffffffffffffffffff1602179055505062000407565b600033905090565b60008060009054906101000a900473ffffffffffffffffffffffffffffffffffffffff169050816000806101000a81548173ffffffffffffffffffffffffffffffffffffffff021916908373ffffffffffffffffffffffffffffffffffffffff1602179055508173ffffffffffffffffffffffffffffffffffffffff168173ffffffffffffffffffffffffffffffffffffffff167f8be0079c531659141344cd1fd0a4f28419497f9722a3daafe3b4186f6b6457e060405160405180910390a35050565b6200023e6200016260201b60201c565b73ffffffffffffffffffffffffffffffffffffffff1662000264620002bf60201b60201c565b73ffffffffffffffffffffffffffffffffffffffff1614620002bd576040517f08c379a0000000000000000000000000000000000000000000000000000000008152600401620002b490620003e5565b60405180910390fd5b565b60008060009054906101000a900473ffffffffffffffffffffffffffffffffffffffff16905090565b600080fd5b600073ffffffffffffffffffffffffffffffffffffffff82169050919050565b60006200031a82620002ed565b9050919050565b6200032c816200030d565b81146200033857600080fd5b50565b6000815190506200034c8162000321565b92915050565b6000602082840312156200036b576200036a620002e8565b5b60006200037b848285016200033b565b91505092915050565b600082825260208201905092915050565b7f4f776e61626c653a2063616c6c6572206973206e6f7420746865206f776e6572600082015250565b6000620003cd60208362000384565b9150620003da8262000395565b602082019050919050565b600060208201905081810360008301526200040081620003be565b9050919050565b61283880620004176000396000f3fe60806040526004361061010d5760003560e01c80638da5cb5b11610095578063d89239b011610064578063d89239b014610333578063f2fde38b1461035e578063f8b2cb4f14610387578063fc0c546a146103c4578063fd58835b146103ef57610114565b80638da5cb5b14610296578063b674ec97146102c1578063c6044c4614610300578063d0febe4c1461032957610114565b80633c4c9dd7116100dc5780633c4c9dd7146101e95780633ccfd60b1461021457806356bccf911461022b578063715018a6146102545780637ff9b5961461026b57610114565b80630ecc535f1461011957806318160ddd1461015657806325157400146101815780632a5f2485146101c057610114565b3661011457005b600080fd5b34801561012557600080fd5b50610140600480360381019061013b91906119b3565b610418565b60405161014d9190611a57565b60405180910390f35b34801561016257600080fd5b5061016b610438565b6040516101789190611a8b565b60405180910390f35b34801561018d57600080fd5b506101a860048036038101906101a39190611ad2565b6104d0565b6040516101b793929190611b47565b60405180910390f35b3480156101cc57600080fd5b506101e760048036038101906101e29190611b7e565b610507565b005b3480156101f557600080fd5b506101fe6107fa565b60405161020b9190611bdf565b60405180910390f35b34801561022057600080fd5b50610229610820565b005b34801561023757600080fd5b50610252600480360381019061024d91906119b3565b610a7c565b005b34801561026057600080fd5b50610269610d0c565b005b34801561027757600080fd5b50610280610d20565b60405161028d9190611a8b565b60405180910390f35b3480156102a257600080fd5b506102ab610d26565b6040516102b89190611c09565b60405180910390f35b3480156102cd57600080fd5b506102e860048036038101906102e391906119b3565b610d4f565b6040516102f793929190611b47565b60405180910390f35b34801561030c57600080fd5b5061032760048036038101906103229190611c89565b610d86565b005b610331611057565b005b34801561033f57600080fd5b506103486112f3565b6040516103559190611a8b565b60405180910390f35b34801561036a57600080fd5b50610385600480360381019061038091906119b3565b6112f9565b005b34801561039357600080fd5b506103ae60048036038101906103a991906119b3565b61137c565b6040516103bb9190611a8b565b60405180910390f35b3480156103d057600080fd5b506103d9611421565b6040516103e69190611d35565b60405180910390f35b3480156103fb57600080fd5b5061041660048036038101906104119190611b7e565b611447565b005b60076020528060005260406000206000915054906101000a900460ff1681565b6000600260009054906101000a900473ffffffffffffffffffffffffffffffffffffffff1673ffffffffffffffffffffffffffffffffffffffff166318160ddd6040518163ffffffff1660e01b8152600401602060405180830381865afa1580156104a7573d6000803e3d6000fd5b505050506040513d601f19601f820116820180604052508101906104cb9190611d65565b905090565b60086020528060005260406000206000915090508060000154908060010154908060020160009054906101000a900460ff16905083565b600660009054906101000a900460ff1615610557576040517f08c379a000000000000000000000000000000000000000000000000000000000815260040161054e90611def565b60405180910390fd5b6001600660006101000a81548160ff02191690831515021790555081600960008373ffffffffffffffffffffffffffffffffffffffff1673ffffffffffffffffffffffffffffffffffffffff16815260200190815260200160002060000154146105f6576040517f08c379a00000000000000000000000000000000000000000000000000000000081526004016105ed90611e81565b60405180910390fd5b6000600181111561060a576106096119e0565b5b6008600084815260200190815260200160002060020160009054906101000a900460ff1660018111156106405761063f6119e0565b5b14610680576040517f08c379a000000000000000000000000000000000000000000000000000000000815260040161067790611eed565b60405180910390fd5b60016008600084815260200190815260200160002060020160006101000a81548160ff021916908360018111156106ba576106b96119e0565b5b02179055506001600760008373ffffffffffffffffffffffffffffffffffffffff1673ffffffffffffffffffffffffffffffffffffffff16815260200190815260200160002060006101000a81548160ff02191690836002811115610722576107216119e0565b5b0217905550600960008273ffffffffffffffffffffffffffffffffffffffff1673ffffffffffffffffffffffffffffffffffffffff16815260200190815260200160002060008082016000905560018201600090556002820160006101000a81549060ff021916905550508073ffffffffffffffffffffffffffffffffffffffff167f18184db950457e5be3081440f13ddfc73c469b6d849a0addf29467e3c3a3eaa5836040516107d39190611a8b565b60405180910390a26000600660006101000a81548160ff0219169083151502179055505050565b600360009054906101000a900473ffffffffffffffffffffffffffffffffffffffff1681565b600360009054906101000a900473ffffffffffffffffffffffffffffffffffffffff1673ffffffffffffffffffffffffffffffffffffffff163373ffffffffffffffffffffffffffffffffffffffff16146108b0576040517f08c379a00000000000000000000000000000000000000000000000000000000081526004016108a790611f7f565b60405180910390fd5b600660009054906101000a900460ff1615610900576040517f08c379a00000000000000000000000000000000000000000000000000000000081526004016108f790611def565b60405180910390fd5b6001600660006101000a81548160ff021916908315150217905550600047905060008111610963576040517f08c379a000000000000000000000000000000000000000000000000000000000815260040161095a90611feb565b60405180910390fd5b60003373ffffffffffffffffffffffffffffffffffffffff16826040516109899061203c565b60006040518083038185875af1925050503d80600081146109c6576040519150601f19603f3d011682016040523d82523d6000602084013e6109cb565b606091505b5050905080610a0f576040517f08c379a0000000000000000000000000000000000000000000000000000000008152600401610a069061209d565b60405180910390fd5b3373ffffffffffffffffffffffffffffffffffffffff167f884edad9ce6fa2440d8a54cc123490eb96d2768479d49ff9c7366125a942436483604051610a559190611a8b565b60405180910390a250506000600660006101000a81548160ff021916908315150217905550565b600660009054906101000a900460ff1615610acc576040517f08c379a0000000000000000000000000000000000000000000000000000000008152600401610ac390611def565b60405180910390fd5b6001600660006101000a81548160ff0219169083151502179055506064610af28261137c565b1015610b33576040517f08c379a0000000000000000000000000000000000000000000000000000000008152600401610b2a90612109565b60405180910390fd5b600260009054906101000a900473ffffffffffffffffffffffffffffffffffffffff1673ffffffffffffffffffffffffffffffffffffffff166323b872dd82600460009054906101000a900473ffffffffffffffffffffffffffffffffffffffff1660646040518463ffffffff1660e01b8152600401610bb593929190612185565b6020604051808303816000875af1158015610bd4573d6000803e3d6000fd5b505050506040513d601f19601f82011682018060405250810190610bf891906121f4565b610c37576040517f08c379a0000000000000000000000000000000000000000000000000000000008152600401610c2e9061226d565b60405180910390fd5b6000600760008373ffffffffffffffffffffffffffffffffffffffff1673ffffffffffffffffffffffffffffffffffffffff16815260200190815260200160002060006101000a81548160ff02191690836002811115610c9a57610c996119e0565b5b02179055508073ffffffffffffffffffffffffffffffffffffffff167fe1fffcc4923d04b559f4d29a8bfc6cda04eb5b0d3c460751c2402c5c5cc9109c6064604051610ce6919061228d565b60405180910390a26000600660006101000a81548160ff02191690831515021790555050565b610d14611801565b610d1e600061187f565b565b60055481565b60008060009054906101000a900473ffffffffffffffffffffffffffffffffffffffff16905090565b60096020528060005260406000206000915090508060000154908060010154908060020160009054906101000a900460ff16905083565b610d8e611801565b600060149054906101000a900460ff1615610dde576040517f08c379a0000000000000000000000000000000000000000000000000000000008152600401610dd5906122f4565b60405180910390fd5b6001600060146101000a81548160ff02191690831515021790555060005b600c811015610ebc576040518060600160405280600154815260200160648152602001600180811115610e3257610e316119e0565b5b815250600860006001548152602001908152602001600020600082015181600001556020820151816001015560408201518160020160006101000a81548160ff02191690836001811115610e8957610e886119e0565b5b021790555090505060016000815480929190610ea490612343565b91905055508080610eb490612343565b915050610dfc565b5060005b8282905081101561105257604051806060016040528060015481526020016014815260200160006001811115610ef957610ef86119e0565b5b815250600860006001548152602001908152602001600020600082015181600001556020820151816001015560408201518160020160006101000a81548160ff02191690836001811115610f5057610f4f6119e0565b5b021790555090505060086000600154815260200190815260200160002060096000858585818110610f8457610f8361238b565b5b9050602002016020810190610f9991906119b3565b73ffffffffffffffffffffffffffffffffffffffff1673ffffffffffffffffffffffffffffffffffffffff16815260200190815260200160002060008201548160000155600182015481600101556002820160009054906101000a900460ff168160020160006101000a81548160ff0219169083600181111561101f5761101e6119e0565b5b02179055509050506001600081548092919061103a90612343565b9190505550808061104a90612343565b915050610ec0565b505050565b600660009054906101000a900460ff16156110a7576040517f08c379a000000000000000000000000000000000000000000000000000000000815260040161109e90611def565b60405180910390fd5b6001600660006101000a81548160ff02191690831515021790555060646005546110d191906123ba565b3411611112576040517f08c379a000000000000000000000000000000000000000000000000000000000815260040161110990612494565b60405180910390fd5b3373ffffffffffffffffffffffffffffffffffffffff1631341061116b576040517f08c379a000000000000000000000000000000000000000000000000000000000815260040161116290612526565b60405180910390fd5b60003490506000600554826111809190612575565b905060006005548261119291906123ba565b9050600081846111a291906125a6565b9050600260009054906101000a900473ffffffffffffffffffffffffffffffffffffffff1673ffffffffffffffffffffffffffffffffffffffff166340c10f1933856040518363ffffffff1660e01b81526004016112019291906125da565b600060405180830381600087803b15801561121b57600080fd5b505af115801561122f573d6000803e3d6000fd5b505050503373ffffffffffffffffffffffffffffffffffffffff167f0f6798a560793a54c3bcfe86a93cde1e73087d944c0ea20544137d4121396885846040516112799190611a8b565b60405180910390a260008111156112d2573373ffffffffffffffffffffffffffffffffffffffff166108fc829081150290604051600060405180830381858888f193505050501580156112d0573d6000803e3d6000fd5b505b505050506000600660006101000a81548160ff021916908315150217905550565b60015481565b611301611801565b600073ffffffffffffffffffffffffffffffffffffffff168173ffffffffffffffffffffffffffffffffffffffff1603611370576040517f08c379a000000000000000000000000000000000000000000000000000000000815260040161136790612675565b60405180910390fd5b6113798161187f565b50565b6000600260009054906101000a900473ffffffffffffffffffffffffffffffffffffffff1673ffffffffffffffffffffffffffffffffffffffff166370a08231836040518263ffffffff1660e01b81526004016113d99190611c09565b602060405180830381865afa1580156113f6573d6000803e3d6000fd5b505050506040513d601f19601f8201168201806040525081019061141a9190611d65565b9050919050565b600260009054906101000a900473ffffffffffffffffffffffffffffffffffffffff1681565b600660009054906101000a900460ff1615611497576040517f08c379a000000000000000000000000000000000000000000000000000000000815260040161148e90611def565b60405180910390fd5b6001600660006101000a81548160ff0219169083151502179055506001808111156114c5576114c46119e0565b5b6008600084815260200190815260200160002060020160009054906101000a900460ff1660018111156114fb576114fa6119e0565b5b1461153b576040517f08c379a0000000000000000000000000000000000000000000000000000000008152600401611532906126e1565b60405180910390fd5b605060086000848152602001908152602001600020600101541015611595576040517f08c379a000000000000000000000000000000000000000000000000000000000815260040161158c9061274d565b60405180910390fd5b60006008600084815260200190815260200160002060020160006101000a81548160ff021916908360018111156115cf576115ce6119e0565b5b021790555060086000838152602001908152602001600020600960008373ffffffffffffffffffffffffffffffffffffffff1673ffffffffffffffffffffffffffffffffffffffff16815260200190815260200160002060008201548160000155600182015481600101556002820160009054906101000a900460ff168160020160006101000a81548160ff02191690836001811115611672576116716119e0565b5b02179055509050506002600760008373ffffffffffffffffffffffffffffffffffffffff1673ffffffffffffffffffffffffffffffffffffffff16815260200190815260200160002060006101000a81548160ff021916908360028111156116dd576116dc6119e0565b5b0217905550600260009054906101000a900473ffffffffffffffffffffffffffffffffffffffff1673ffffffffffffffffffffffffffffffffffffffff16639dc29fac600460009054906101000a900473ffffffffffffffffffffffffffffffffffffffff1660646040518363ffffffff1660e01b815260040161176292919061276d565b600060405180830381600087803b15801561177c57600080fd5b505af1158015611790573d6000803e3d6000fd5b505050508073ffffffffffffffffffffffffffffffffffffffff167fca8e808aa6f6e9e1f098cc0221cabeda0007151124f8bf3979e727492efca0f6836040516117da9190611a8b565b60405180910390a26000600660006101000a81548160ff0219169083151502179055505050565b611809611943565b73ffffffffffffffffffffffffffffffffffffffff16611827610d26565b73ffffffffffffffffffffffffffffffffffffffff161461187d576040517f08c379a0000000000000000000000000000000000000000000000000000000008152600401611874906127e2565b60405180910390fd5b565b60008060009054906101000a900473ffffffffffffffffffffffffffffffffffffffff169050816000806101000a81548173ffffffffffffffffffffffffffffffffffffffff021916908373ffffffffffffffffffffffffffffffffffffffff1602179055508173ffffffffffffffffffffffffffffffffffffffff168173ffffffffffffffffffffffffffffffffffffffff167f8be0079c531659141344cd1fd0a4f28419497f9722a3daafe3b4186f6b6457e060405160405180910390a35050565b600033905090565b600080fd5b600080fd5b600073ffffffffffffffffffffffffffffffffffffffff82169050919050565b600061198082611955565b9050919050565b61199081611975565b811461199b57600080fd5b50565b6000813590506119ad81611987565b92915050565b6000602082840312156119c9576119c861194b565b5b60006119d78482850161199e565b91505092915050565b7f4e487b7100000000000000000000000000000000000000000000000000000000600052602160045260246000fd5b60038110611a2057611a1f6119e0565b5b50565b6000819050611a3182611a0f565b919050565b6000611a4182611a23565b9050919050565b611a5181611a36565b82525050565b6000602082019050611a6c6000830184611a48565b92915050565b6000819050919050565b611a8581611a72565b82525050565b6000602082019050611aa06000830184611a7c565b92915050565b611aaf81611a72565b8114611aba57600080fd5b50565b600081359050611acc81611aa6565b92915050565b600060208284031215611ae857611ae761194b565b5b6000611af684828501611abd565b91505092915050565b60028110611b1057611b0f6119e0565b5b50565b6000819050611b2182611aff565b919050565b6000611b3182611b13565b9050919050565b611b4181611b26565b82525050565b6000606082019050611b5c6000830186611a7c565b611b696020830185611a7c565b611b766040830184611b38565b949350505050565b60008060408385031215611b9557611b9461194b565b5b6000611ba385828601611abd565b9250506020611bb48582860161199e565b9150509250929050565b6000611bc982611955565b9050919050565b611bd981611bbe565b82525050565b6000602082019050611bf46000830184611bd0565b92915050565b611c0381611975565b82525050565b6000602082019050611c1e6000830184611bfa565b92915050565b600080fd5b600080fd5b600080fd5b60008083601f840112611c4957611c48611c24565b5b8235905067ffffffffffffffff811115611c6657611c65611c29565b5b602083019150836020820283011115611c8257611c81611c2e565b5b9250929050565b60008060208385031215611ca057611c9f61194b565b5b600083013567ffffffffffffffff811115611cbe57611cbd611950565b5b611cca85828601611c33565b92509250509250929050565b6000819050919050565b6000611cfb611cf6611cf184611955565b611cd6565b611955565b9050919050565b6000611d0d82611ce0565b9050919050565b6000611d1f82611d02565b9050919050565b611d2f81611d14565b82525050565b6000602082019050611d4a6000830184611d26565b92915050565b600081519050611d5f81611aa6565b92915050565b600060208284031215611d7b57611d7a61194b565b5b6000611d8984828501611d50565b91505092915050565b600082825260208201905092915050565b7f5265656e7472616e637920677561726400000000000000000000000000000000600082015250565b6000611dd9601083611d92565b9150611de482611da3565b602082019050919050565b60006020820190508181036000830152611e0881611dcc565b9050919050565b7f42617474657279206973206e6f7420696e2075736572277320706f737365737360008201527f696f6e0000000000000000000000000000000000000000000000000000000000602082015250565b6000611e6b602383611d92565b9150611e7682611e0f565b604082019050919050565b60006020820190508181036000830152611e9a81611e5e565b9050919050565b7f42617474657279206973206e6f7420696e20612076656869636c650000000000600082015250565b6000611ed7601b83611d92565b9150611ee282611ea1565b602082019050919050565b60006020820190508181036000830152611f0681611eca565b9050919050565b7f4f6e6c7920746865206f776e65722063616e2063616c6c20746869732066756e60008201527f6374696f6e000000000000000000000000000000000000000000000000000000602082015250565b6000611f69602583611d92565b9150611f7482611f0d565b604082019050919050565b60006020820190508181036000830152611f9881611f5c565b9050919050565b7f4e6f204574686572206c65667420746f20776974686472617700000000000000600082015250565b6000611fd5601983611d92565b9150611fe082611f9f565b602082019050919050565b6000602082019050818103600083015261200481611fc8565b9050919050565b600081905092915050565b50565b600061202660008361200b565b915061203182612016565b600082019050919050565b600061204782612019565b9150819050919050565b7f4661696c656420746f2073656e64204574686572000000000000000000000000600082015250565b6000612087601483611d92565b915061209282612051565b602082019050919050565b600060208201905081810360008301526120b68161207a565b9050919050565b7f496e73756666696369656e7420746f6b656e2062616c616e6365000000000000600082015250565b60006120f3601a83611d92565b91506120fe826120bd565b602082019050919050565b60006020820190508181036000830152612122816120e6565b9050919050565b600061213482611d02565b9050919050565b61214481612129565b82525050565b6000819050919050565b600061216f61216a6121658461214a565b611cd6565b611a72565b9050919050565b61217f81612154565b82525050565b600060608201905061219a6000830186611bfa565b6121a7602083018561213b565b6121b46040830184612176565b949350505050565b60008115159050919050565b6121d1816121bc565b81146121dc57600080fd5b50565b6000815190506121ee816121c8565b92915050565b60006020828403121561220a5761220961194b565b5b6000612218848285016121df565b91505092915050565b7f546f6b656e207472616e73666572206661696c65640000000000000000000000600082015250565b6000612257601583611d92565b915061226282612221565b602082019050919050565b600060208201905081810360008301526122868161224a565b9050919050565b60006020820190506122a26000830184612176565b92915050565b7f416c726561647920696e697469616c697a656400000000000000000000000000600082015250565b60006122de601383611d92565b91506122e9826122a8565b602082019050919050565b6000602082019050818103600083015261230d816122d1565b9050919050565b7f4e487b7100000000000000000000000000000000000000000000000000000000600052601160045260246000fd5b600061234e82611a72565b91507fffffffffffffffffffffffffffffffffffffffffffffffffffffffffffffffff82036123805761237f612314565b5b600182019050919050565b7f4e487b7100000000000000000000000000000000000000000000000000000000600052603260045260246000fd5b60006123c582611a72565b91506123d083611a72565b92508282026123de81611a72565b915082820484148315176123f5576123f4612314565b5b5092915050565b7f41206d696e696d756d206f66203430303030207765692069732072657175697260008201527f656420746f206275792061206d696e696d756d206f662031303020746f6b656e60208201527f7300000000000000000000000000000000000000000000000000000000000000604082015250565b600061247e604183611d92565b9150612489826123fc565b606082019050919050565b600060208201905081810360008301526124ad81612471565b9050919050565b7f496e73756666696369656e74204554482062616c616e636520746f206275792060008201527f746f6b656e730000000000000000000000000000000000000000000000000000602082015250565b6000612510602683611d92565b915061251b826124b4565b604082019050919050565b6000602082019050818103600083015261253f81612503565b9050919050565b7f4e487b7100000000000000000000000000000000000000000000000000000000600052601260045260246000fd5b600061258082611a72565b915061258b83611a72565b92508261259b5761259a612546565b5b828204905092915050565b60006125b182611a72565b91506125bc83611a72565b92508282039050818111156125d4576125d3612314565b5b92915050565b60006040820190506125ef6000830185611bfa565b6125fc6020830184611a7c565b9392505050565b7f4f776e61626c653a206e6577206f776e657220697320746865207a65726f206160008201527f6464726573730000000000000000000000000000000000000000000000000000602082015250565b600061265f602683611d92565b915061266a82612603565b604082019050919050565b6000602082019050818103600083015261268e81612652565b9050919050565b7f42617474657279206973206e6f74206174207468652073746174696f6e000000600082015250565b60006126cb601d83611d92565b91506126d682612695565b602082019050919050565b600060208201905081810360008301526126fa816126be565b9050919050565b7f42617474657279206973206e6f74206368617267656420656e6f756768000000600082015250565b6000612737601d83611d92565b915061274282612701565b602082019050919050565b600060208201905081810360008301526127668161272a565b9050919050565b6000604082019050612782600083018561213b565b61278f6020830184612176565b9392505050565b7f4f776e61626c653a2063616c6c6572206973206e6f7420746865206f776e6572600082015250565b60006127cc602083611d92565b91506127d782612796565b602082019050919050565b600060208201905081810360008301526127fb816127bf565b905091905056fea2646970667358221220d50155acad3c52c254a6868272651b4859efb303ecd5e24d58e8732ba26039db64736f6c63430008130033",
  "immutableReferences": {},
  "source": "// SPDX-License-Identifier: MIT\npragma solidity 0.8.19;\n\nimport \"./powerToken.sol\";\nimport \"@openzeppelin/contracts/access/Ownable.sol\";\n\n\ncontract swap is Ownable {\n  bool private initialized = false; //Only used for init\n  uint256 public nextBatteryId = 1; //Only used for init\n  powerToken public token;\n  address payable public swapOwner;\n  address payable contractAddress;\n  uint256 public tokenPrice = 400; //400 wei per token\n  bool internal reentrancyLock = false; //Reentrancy guard\n\n  //Enum for battery location\n  enum batLocation {\n    VEHICLE,\n    STATION\n  }\n\n  //Enum for user state\n  enum userState {\n    SPENT,\n    DEPOSITED,\n    COLLECTED\n  }\n\n  mapping(address => userState) public userStates; //Mapping to track user state during the swap process\n\n  //Battery structure to maintain the state of the battery\n  struct battery {\n    uint256 id;\n    uint256 percent;\n    //address lastUser;\n    batLocation location;\n  }\n\n  mapping (uint256 => battery) public batteryMap; //Mapping ID to Battery\n\n  mapping (address => battery) public userBattery; //Mapping user to battery\n\n  //Event to log the minting of tokens\n  event Mint(address indexed to, uint256 value);\n\n  //Event to log deposit of tokens\n  event Deposit(address indexed from, uint256 value);\n\n  //Event to log the deposit of battery\n  event BatteryDeposit(address indexed from, uint256 batId);\n\n  //Event to log the collection of battery\n  event BatteryCollect(address indexed from, uint256 batId);\n\n  //Event to log withdrawal of ETH by owner\n  event Withdraw(address indexed owner, uint256 value);\n\n  //Modifier ownerOnly to restrict access to the owner\n  modifier ownerOnly() {\n    require(msg.sender == swapOwner, \"Only the owner can call this function\");\n    _;\n  }\n\n  //Constructor to deploy the contract with the token's address\n  constructor(address _tokenAddress) payable onlyOwner(){\n    swapOwner = payable(msg.sender); //Set the owner of the contract to the EOA that deployed the contract\n    contractAddress = payable(address(this));\n    token = powerToken(_tokenAddress); //Deploy the contract with the token's address\n  }\n\n  //Modifier for reentrancy guard\n  modifier reentrancyGuard() {\n    require(!reentrancyLock, \"Reentrancy guard\");\n    reentrancyLock = true;\n    _;\n    reentrancyLock = false;\n  }\n\n  //Receive function to accept ether\n  receive() external payable {\n    //Emit an event to log the amount of ether received\n  }\n\n  //Function to buy tokens\n  function buyTokens() public payable reentrancyGuard() {\n    //Ensure user can buy at least one token\n    require(msg.value > tokenPrice * 100, \"A minimum of 40000 wei is required to buy a minimum of 100 tokens\");\n    //Ensure user has enough balance to buy tokens\n    require(msg.value < msg.sender.balance, \"Insufficient ETH balance to buy tokens\");\n    uint256 amount = msg.value;\n    uint256 tokens = amount / tokenPrice; //Calculate the number of tokens to transfer \n    uint256 cost = tokens * tokenPrice; //Calculate the cost of the tokens\n    uint256 refund = amount - cost; //Calculate the refund amount\n    token.mint(msg.sender, tokens); //Transfer tokens to user\n    emit Mint(msg.sender, tokens); //Emit an event to log the minting of tokens\n\n    //Refund the user if they overpaid\n    if (refund > 0) {\n      payable(msg.sender).transfer(refund);\n    }\n  }\n\n  // Users deposit tokens to initiate the swap process\n  function depositTokens(address _user) public reentrancyGuard(){\n    require(getBalance(_user) >= 100, \"Insufficient token balance\");\n    require(token.transferFrom(_user, contractAddress, 100), \"Token transfer failed\");\n    //require(token.transfer(contractAddress, 100), \"Token transfer failed\"); //Transfer tokens to contract\n    userStates[_user] = userState.SPENT; //Update user state\n    emit Deposit(_user, 100); //Emit an event to log the deposit of tokens\n  }\n\n  //Function to deposit the battery\n  function depositBattery(uint256 _batId, address _user) public reentrancyGuard(){\n    //Ensure battery ID belongs to the user\n    require(userBattery[_user].id == _batId, \"Battery is not in user's possession\");\n    //Ensure battery is in the vehicle\n    require(batteryMap[_batId].location == batLocation.VEHICLE, \"Battery is not in a vehicle\");\n    //Modify the battery location to the battery station\n    batteryMap[_batId].location = batLocation.STATION;\n    //Update the user state\n    userStates[_user] = userState.DEPOSITED;\n    //Remove the battery from the user\n    delete userBattery[_user];\n    //Emit an event to log the deposit of the battery\n    emit BatteryDeposit(_user, _batId);\n  }\n\n  // Once verified, the user can collect a charged battery\n  function collectBattery(uint256 _batId, address _user) public reentrancyGuard(){\n    //Ensure battery ID belongs to the station\n    require(batteryMap[_batId].location == batLocation.STATION, \"Battery is not at the station\");\n    //Ensure battery is charged\n    require(batteryMap[_batId].percent >=80, \"Battery is not charged enough\");\n    //Modify the battery location to the vehicle\n    batteryMap[_batId].location = batLocation.VEHICLE;\n    //Modify the last user to the calling user\n    userBattery[_user] = batteryMap[_batId];\n    //Update the user state\n    userStates[_user] = userState.COLLECTED;\n    //Burn tokens from contract\n    token.burn(contractAddress, 100);\n    //Emit an event to log the collection of the battery\n    emit BatteryCollect(_user, _batId);\n  }\n  \n\n  //Get Balance of the calling user\n  function getBalance(address _user) public view returns (uint256) {\n    return token.balanceOf(_user);\n  }\n\n  //Returns total Supply\n  function totalSupply() public view returns (uint256) {\n    return token.totalSupply();\n  }\n\n  //Function to let contract owner to withdraw ether\n  function withdraw() public ownerOnly reentrancyGuard(){\n    uint amount = address(this).balance;\n    require(amount > 0, \"No Ether left to withdraw\");\n\n    (bool success, ) = msg.sender.call{value: amount}(\"\");\n    require(success, \"Failed to send Ether\");\n    emit Withdraw(msg.sender, amount); //Emit an event to log the withdrawal of ether\n  }\n\n  // Function to initialize the contract\n    function init(address[] calldata _userAddresses) external onlyOwner {\n        require(!initialized, \"Already initialized\");\n        initialized = true;\n\n        // Create 12 batteries belonging to the station\n        for (uint i = 0; i < 12; i++) {\n            batteryMap[nextBatteryId] = battery(nextBatteryId, 100, batLocation.STATION); // Fully charged\n            nextBatteryId++;\n        }\n\n        // Create three batteries belonging to users\n        for (uint i = 0; i < _userAddresses.length; i++) {\n            batteryMap[nextBatteryId] = battery(nextBatteryId, 20, batLocation.VEHICLE); // Assuming 20% charge\n            userBattery[_userAddresses[i]] = batteryMap[nextBatteryId];\n            nextBatteryId++;\n        }\n    }\n}\n",
  "sourcePath": "/Users/Manan/MDX/Blockchain2/battery-swap/contracts/swap.sol",
  "compiler": {
    "name": "solc",
    "version": "0.8.19+commit.7dd6d404.Emscripten.clang"
  },
  "schemaVersion": "3.4.16",
  "updatedAt": "2024-04-13T19:35:30.631Z",
  "devdoc": {
    "kind": "dev",
    "methods": {
      "owner()": {
        "details": "Returns the address of the current owner."
      },
      "renounceOwnership()": {
        "details": "Leaves the contract without owner. It will not be possible to call `onlyOwner` functions. Can only be called by the current owner. NOTE: Renouncing ownership will leave the contract without an owner, thereby disabling any functionality that is only available to the owner."
      },
      "transferOwnership(address)": {
        "details": "Transfers ownership of the contract to a new account (`newOwner`). Can only be called by the current owner."
      }
    },
    "version": 1
  },
  "userdoc": {
    "kind": "user",
    "methods": {},
    "version": 1
  }
}